:020000040000FA
:10000000020CC243F18F43A48F53807053A47043FA
:10001000808F53F17043F20343A5035390FC53A523
:10002000FC43900353F2FC228FAB220211F5120F16
:10003000531211B320000302021F900067E054FD29
:10004000F0E4900077F0A3F0900068E054FDF0E455
:1000500090007CF0121338900085EFF0121440905D
:100060000087EFF0C3940374809480503E90008525
:10007000E064086036900069E0C413131354017FF4
:100080000020E0027F0190006AE0FE131354015F3C
:10009000600D900069E04480F0121572120FA59077
:1000A000006AE020E205E04404F022900083E0FFD3
:1000B000900085E0FE6F700302014A90006CEFF043
:1000C000900083EEF0900069E020E005EE640860A7
:1000D00020900067E054F7F0E490006FF0A3F090F8
:1000E000007EF090006AE054FDF0900069E054FE5C
:1000F000F0E4900071F0A3F0900069E020E6189021
:10010000008AE004F07006900089E004F07FFF129E
:10011000116FE490006BF0900069E054F7F09000EC
:100120006E7401F0121440900087EFF0C3940274D3
:1001300080948040030201E690006AE020E403021C
:1001400001E6E490006EF00201E690006AE020E42F
:10015000030201E0900069E020E30790006DE030C9
:10016000E30890006E7401F08042E490006EF0D3DA
:10017000900072E09410900071E09404400A7FFFB8
:1001800012116F1216178024D3900072E094E89039
:100190000071E0940340157F2412116F900068E015
:1001A000547FF0A3E054F7F0E054BFF0900067E014
:1001B00030E733C3900066E09464900065E09400FB
:1001C0004024900067E0547FF0E4900065F0A3F0D5
:1001D00090006AE054EFF0900069E054BFF08006B0
:1001E00090006E7401F0900067E054BFF0E490005E
:1001F00086F0900069E054FBF0900067E020E00E8C
:10020000E4900071F0A3F0900067E04401F09000EA
:100210006EE07003020557E4F012086A020557E425
:1002200090006CF0A3E054FDF090006AE030E436FA
:10023000E4900077F0A3F0900067E020E70BE04443
:1002400080F0E4900065F0A3F0900069E030E616DD
:10025000D3900072E0941E900071E09400400790EB
:100260000069E054BFF0900067E030E72BC39000D6
:1002700066E0941E900065E09400401C900067E0EA
:10028000547FF0E4900065F0A3F090006AE054EF32
:10029000F0900069E054BFF090006AE054F7F0A3DA
:1002A000E054F7F0E4900085F0900083F090006750
:1002B000E054FEF090006BE030E717C3900064E07C
:1002C0009464900063E0940040087FFF12116F1265
:1002D000155590006BE020E7057FFF12116F90002D
:1002E00068E0547FF090006AE054FDF0E030E011E7
:1002F000E054FEF090007EE004F090006DE054F7D2
:10030000F0C3900070E0946890006FE0940140208A
:10031000900067E054F7F0E490006FF0A3F09000D5
:100320007EF090006AE054FDF0900069E054FEF029
:1003300090007EE0D3940274809480406890006FB7
:10034000E0FEA3E0FFD39400EE94004058EF9468E1
:10035000EE94015050900069E020E01790008AE090
:1003600004F07006900089E004F090006FE4F0A3C0
:1003700074E0F0900069E04401F0900068E054F708
:10038000F0A3E054FBF0900070E030E007900068CC
:10039000E04480F09000A37403F0A3744DF0E49067
:1003A0000071F0A3F0900069E030E34AE054F7F008
:1003B000E054BFF0E054DFF0E4900077F0A3F09059
:1003C0000068E020E730900071E0FEA3E0FFD394E6
:1003D00000EE94004020EF9446EE940050189000F8
:1003E0007AEFF0E4900071F0A3F0900067E044042D
:1003F000F0A3E04401F0900067E030E23390007A2F
:10040000E0C39446748094805026E4900065F0A385
:10041000F0900068E030E018E4900077F0A3F090EE
:10042000006DE04408F0900068E054FEF012149C67
:1004300090007AE0C3946474809480401A900067BE
:10044000E054FBF0E490007AF0900068E054FEF095
:10045000E4900077F0A3F0900069E020E324E0301E
:10046000E620900068E04480F0900067E04440F0AF
:10047000900069E054BFF0E4900086F0900077F0BF
:10048000A3F0900069E030E21FE054BFF0E054FBBD
:10049000F0900068E04480F0900067E04440F09005
:1004A0000071A3E0900086F0900067E030E6639072
:1004B0000086E0C39455748094805056900001E00B
:1004C000FEA3E0FF1210D112108F7C007D0A1205EE
:1004D000FD900082EDF0E02408F090007CE0FF90B9
:1004E0000086E0FED39F402AEE9FFF900082E0FE50
:1004F000EFC39E401D900086E090007CF090006865
:10050000E04480F0E4900077F0A3F090006DE054B8
:10051000F7F0900086E0C394557480948040387F53
:10052000FF12116F900067E054BFF0E4900086F076
:10053000900068E0547FF0900067E054F7F0E4909A
:10054000006FF0A3F090007EF090006AE054FDF0A0
:10055000900069E054FEF0900069E020E729D39014
:100560000078E09490900077E09401401A90006940
:10057000E04480F0121572120FA5121608121041F5
:10058000E4900077F0A3F0900068E030E707E054D3
:100590007FF012149C22EF8DF0A4A8F0CF8CF0A471
:1005A00028CE8DF0A42EFE22BC000BBE0029EF8DBC
:1005B000F084FFADF022E4CCF875F008EF2FFFEEE9
:1005C00033FEEC33FCEE9DEC984005FCEE9DFE0FF7
:1005D000D5F0E9E4CEFD22EDF8F5F0EE8420D21C52
:1005E000FEADF075F008EF2FFFED33FD400798509A
:1005F00006D5F0F222C398FD0FD5F0EA22C2D5EC61
:1006000030E709B2D5E4C39DFDE49CFCEE30E7156C
:10061000B2D5E4C39FFFE49EFE1205A8C3E49DFD8E
:10062000E49CFC80031205A830D507C3E49FFFE4D7
:100630009EFE22C5F0F8A3E028F0C5F0F8E582158B
:100640008270021583E038F022BB010A89828A8316
:10065000E0F5F0A3E022500687F009E71922BBFE7F
:1006600007E3F5F009E3192289828A83E493F5F020
:1006700074019322BB010A89828A83F0E5F0A3F01A
:10068000225006F709A7F01922BBFE06F3E5F00990
:10069000F31922F8BB0111E58229F582E5833AF5C9
:1006A00083E8F0E5F0A3F0225009E92582C8F608B6
:1006B000A6F022BBFE09E92582C8F2E5F008F22285
:1006C000EF2BFFEE3AFEED39FDEC38FC22E88FF01F
:1006D000A4CC8BF0A42CFCE98EF0A42CFC8AF0EDC9
:1006E000A42CFCEA8EF0A4CDA8F08BF0A42DCC387D
:1006F00025F0FDE98FF0A42CCD35F0FCEB8EF0A4B5
:10070000FEA9F0EB8FF0A4CFC5F02ECD39FEE43C6E
:10071000FCEAA42DCE35F0FDE43CFC2275F0087512
:100720008200EF2FFFEE33FECD33CDCC33CCC5822C
:1007300033C5829BED9AEC99E58298400CF582EEE8
:100740009BFEED9AFDEC99FC0FD5F0D6E4CEFBE4D0
:10075000CDFAE4CCF9A88222B800C1B90059BA0098
:100760002DEC8BF084CFCECDFCE5F0CBF97818EFF3
:100770002FFFEE33FEED33FDEC33FCEB33FB10D7F4
:1007800003994004EB99FB0FD8E5E4F9FA227818B5
:10079000EF2FFFEE33FEED33FDEC33FCC933C91010
:1007A000D7059BE99A4007EC9BFCE99AF90FD8E042
:1007B000E4C9FAE4CCFB2275F010EF2FFFEE33FE14
:1007C000ED33FDCC33CCC833C810D7079BEC9AE887
:1007D00099400AED9BFDEC9AFCE899F80FD5F0DA08
:1007E000E4CDFBE4CCFAE4C8F922E8600FECC313D3
:1007F000FCED13FDEE13FEEF13FFD8F122E8600FBE
:10080000EFC333FFEE33FEED33FDEC33FCD8F122C2
:10081000E0FCA3E0FDA3E0FEA3E0FF22ECF0A3EDEB
:10082000F0A3EEF0A3EFF022A42582F582E5F035E7
:1008300083F58322EBF0A3EAF0A3E9F022EC8EF03B
:10084000A4CCC5F0CCCDF8EFA4CEC5F02DFDE43C92
:10085000FCE8A42EC8C5F03DFDE43CFCEFA4FFE598
:10086000F028FEE43DFDE43CFC22900085E024FEFF
:10087000602E24FE603D24FC604C24F8605B24F074
:10088000606A24E06079243F600302091190007BD4
:1008900074DFF09000A37403F0A37490F002098257
:1008A00090007B74EFF09000A37403F0A37439F010
:1008B00002098290007B74BFF09000A37403F0A340
:1008C000745AF002098290007B747FF09000A37448
:1008D00003F0A37437F002098290007B74FDF0905E
:1008E00000A37403F0A37450F002098290007B749B
:1008F000FBF09000A37403F0A3743BF00209829014
:10090000007B74F7F09000A37403F0A3743FF080B1
:1009100071C3900072E09464900071E094005047BD
:10092000121440900087EFF0C394037480948040C9
:10093000367F7F12116F900068E04480F09000A332
:100940007403F0A37437F0900069E04408F0E044C9
:1009500040F090006DE054F7F090006BE04480F0C0
:10096000E4900063F0A3F090006AE04410F090007F
:1009700067E04480F0E4900065F0A3F0900081749B
:1009800005F0900071E0FEA3E0FFC39464EE9400D4
:10099000507790006AE030E403020A66900081E03C
:1009A000FDC3EF9DEE94005003020A6690006BE0D9
:1009B00020E31AE04408F090007BE0FF12116F90F2
:1009C000006BE04480F0E4900063F0A3F0900069D5
:1009D000E04404F0900085E064087025900067E032
:1009E00020E30FE04408F0E490007EF090006FF008
:1009F000A3F090006AE020E108E04402F0E0440146
:100A0000F0900068E04480F022D3900072E09410EF
:100A1000900071E0940440087FFF12116F021617D6
:100A2000D3900072E094E8900071E094034013903A
:100A30000069E054FBF0900068E0547FF07F2402EE
:100A4000116F900069E054FBF0900068E0547FF073
:100A500090006BE054F7F0900069E020E6087FFF1B
:100A600012116F12155522C1004200A90000420068
:100A7000AB00004200AD00004100B700013F0001A3
:100A80003C00013207013B020133010235000A023A
:100A900039007D023700960131010134014100A780
:100AA000004100880041008B004100A8004100A2E5
:100AB000001308000000000000000000000000001B
:100AC0000000000000004100A10055008C00000063
:100AD0000000000000000000000000000000000016
:100AE000000042008900004200A3000041007F0096
:100AF00041008500410083004100750041006C0009
:100B000041008700420077000042006F0000420071
:100B10007100004100760041007E004100860041E6
:100B2000007C004100800041007B0041007D0041CD
:100B3000007A004100797E4100820041008100413D
:100B4000006700410068004100690041006A0041FF
:100B5000006B0041006D004100840041006E0142C5
:100B60000065000042006300004200730000014A7B
:100B70000002480000024B0096C10102450000013E
:100B80005201014D0000900067E030E00E900072CD
:100B9000E004F07006900071E004F0900067E0302F
:100BA000E10E900078E004F07006900077E004F029
:100BB000900067E030E30E900070E004F070069063
:100BC000006FE004F0900067E030E21690007AE0F9
:100BD00004F0E075F00F84E5F07007900068E044E1
:100BE00001F0900067E030E606900086E004F090A7
:100BF0000067E030E70E900066E004F070069000B9
:100C000065E004F090006BE030E70E900064E004D3
:100C1000F07006900063E004F090006DE030E006B4
:100C2000900076E004F02290008C7432F0A37413EC
:100C3000F0752102E4F522C3E522941374809480B8
:100C4000501A74082522F8E6FF748C2521F582E4F9
:100C50003400F583EFF00521052280DB7F011214BB
:100C6000DFC295C293E4F521C3E521941574809405
:100C7000805048748C2521F582E43400F583E0909F
:100C800000A1F0E4F522C3E522940874809480501A
:100C9000269000A1E030E704D2968002C2967F033E
:100CA0001214CAD2957F031214CAC2959000A1E013
:100CB00025E0F0052280CF052180ADD2937F02028E
:100CC00014CA121648787FE4F6D8FD758173020DB8
:100CD0000C0210DCE493A3F8E493A34003F6800134
:100CE000F208DFF48029E493A3F85407240CC8C366
:100CF00033C4540F4420C8834004F456800146F6A0
:100D0000DFE4800B0102040810204080900A67E4B1
:100D10007E019360BCA3FF543F30E509541FFEE4FD
:100D200093A360010ECF54C025E060A840B8E493BF
:100D3000A3FAE493A3F8E493A3C8C582C8CAC58301
:100D4000CAF0A3C8C582C8CAC583CADFE9DEE78086
:100D5000BE754B00754CFFE4FFEFC394077480949D
:100D600080501DEF9016F993FEC3954CE4954B50BF
:100D70000CEF9016DD93FBEE754B00F54C0F80D910
:100D8000EF9016F99375F004A485F04BF54CE5AFA0
:100D90005407FFEBD39F4017AE4BAF4C7C007D5008
:100DA0001205967D641205A88E4B8F4C1B80DFD3F5
:100DB000E54C9490E54B94014006754B01754C90C1
:100DC000C3E54C943CE54B94005006754B00754CC4
:100DD0003C22F583E493FB8F238D248B257F011226
:100DE00014DFC295C293E4F528AF28C3EF940374CF
:100DF000809480503FAF2874232FF8E6F526E4F561
:100E000027AF27C3EF9408748094805023E52630E1
:100E1000E704D2968002C2967F031214CAD2957F4D
:100E2000031214CAC295E52625E0F526052780D1D0
:100E3000052880B5D2937F020214CA901FFDE49367
:100E4000FFF47023901FFC93F4701C901FFB93F42D
:100E50007015901FFA93F4700E7508557509017599
:100E60000A01750B3280138F08901FFAE493F5097D
:100E7000A3E493F50AA3E493F50B7511139000898D
:100E8000E0FCA3E0FDECF5128D139000A3E0F51655
:100E9000A3E0F517E4F518751957900085E0F51AE9
:100EA00022E4F521F52220A7527F141214DF20A797
:100EB000177F141214DF0522E52270020521C39466
:100EC0002CE521940140E722120FF3E490007DF01D
:100ED00090007DE0C3940674809480501CE4FF125F
:100EE000116F7F641214DF7FFF12116F7F64121481
:100EF000DF90007DE004F080D780FE2285A922E506
:100F00003C704FAFAEEF700675AEA575AEF17D08C3
:100F10007F0512153E7D077F0612153E7D807F04FA
:100F200012153E75A9747DC07F0412153E7F327E76
:100F300000EF1F70011EEF4E70F77DC07F04121589
:100F40003E75B5208522A9E5A930E7FB7543C0753C
:100F50003C0122900068E020E24AE490006FF0A398
:100F6000F090007EF090006AF0900067F0A3F0A38C
:100F7000F090006BF090006DF0900085F090008193
:100F8000F090006AE054FBF0900068E04404F090B8
:100F90000067E04402F0E4900077F0A3F090008650
:100FA000F012155522E49000A2F09000A2E0FEC3DA
:100FB000942174809480503AE0FD75F003A4245588
:100FC000F582E43416F583E493FFED75F003A42471
:100FD00056F582E43416F583E493FDEE75F003A430
:100FE0002457F582E43416120DD29000A2E004F0EA
:100FF00080B822E49000A2F09000A2E0FEC3940525
:1010000074809480503AE0FD75F003A424B8F58212
:10101000E43416F583E493FFED75F003A424B9F5E9
:1010200082E43416F583E493FDEE75F003A424BA4C
:10103000F582E43416120DD29000A2E004F080B8DC
:1010400022E49000A2F09000A2E0FEC3940174801C
:101050009480503AE0FD75F003A424CDF582E43489
:1010600016F583E493FFED75F003A424CEF582E436
:101070003416F583E493FDEE75F003A424CFF582D6
:10108000E43416120DD29000A2E004F080B822AC35
:101090001BAD1CAE1DAF1E7810EC4D4E4F70047C86
:1010A000A57DA5C3EC13FCED13FDEE13FEEF13FFBE
:1010B0005010EC64CCFCED644CFDEE644EFEEF642D
:1010C000CEFFD8DF8C1B8D1C8E1D8F1EEE547FFE35
:1010D000228E1B8F1C74A5F51DF51E2212130743CB
:1010E000A680D2A7D2CA1212A2C2CA12180012191E
:1010F00025120B86D2CA1217CFEF600BD200E490F4
:101100000073F0A3F08010C200900074E004F0704F
:1011100006900073E004F012002EC2CAC2CF75CD53
:10112000D875CC2080C5AE07EE9016D693FF12007E
:1011300028EE9016DD93FF1215E475F00EEEA42450
:1011400005F582E5F03400F583E0FCA3E04C60088F
:10115000EE9016E493FF80027F0412161D121652C1
:101160001213668E2D8F2E121610AE2DAF2E228FDB
:1011700023E4F524C3E52494087480948050237FED
:10118000011214DFC284E52330E704D2868002C254
:10119000867F011214DFD284E52325E0F5230524A0
:1011A00080D2C2857F011214CAD2857F011214CA6F
:1011B000C28522C3900074E09482900073E0940092
:1011C0004032900068E020E11F121041900068E07A
:1011D0004402F0900067E054FDF0E4900077F0A343
:1011E000F0900081F01215557FFF12116F9000688A
:1011F000E054FBF022C0E0C0F0C083C082C0D075D4
:10120000D000C000C001C002C003C004C005C006B9
:10121000C007C2CF120B86D007D006D005D004D0AD
:1012200003D002D001D000D0D0D082D083D0F0D073
:10123000E032AFB5EF30E203754201EF30E3037502
:101240004001EF30E103753E01EF30E40F7FFFEF27
:10125000D394007480948040031F80F375B520E51B
:10126000426006E4F5427F01227F0022E4F521C3BB
:10127000E5219408748094805019C374079521FF68
:101280001215E4121366C3EF9417EE94FC400405A4
:101290002180DCE52164087002FF22C374079521D8
:1012A000FF22E4900069F0121572120FA5120EA130
:1012B0001216087F501214DFE4FF12116F7FC8125C
:1012C00014DF7FFF12116FE4900077F0A3F090001D
:1012D000817405F02275B08875D28F75D30353F3EE
:1012E0003F43F34075AA8843F338E5526401600533
:1012F00043AA04800343AA0253AFF812126CEF42D0
:10130000AF120D5102136685A7211215DB1215D1FC
:101310001216341215C71215801216381216401202
:1013200016441215BD1213EB12159A1214B41216AC
:101330001712163C8521A722E4F521F522C3E522E8
:10134000940774809480501BAF221217EEEF600F49
:10135000AF22A8077401088002C333D8FC422105DC
:101360002280DAAF212275B08853B0DF43B010E598
:101370004A700675CE0175B540E5B030E5FB85EEE7
:101380002F85ED30E4F5B0E54A700312158DAE2FD0
:10139000AF3022E4F5AA53F3C043F3C053F3C7437D
:1013A000F318F5FEF5FDF5D2F5D343AF1075B0880F
:1013B00053B0DF43B010E5B030E5FBE4F5B0228F69
:1013C000278E268D258C2475AC14E54354F7F5AD96
:1013D0000075AC188527AD008526AD008525AD00CC
:1013E0008524AD0075AC148543AD2275AC0575AD93
:1013F00028E5AC5480648060F875AC0875AD14E5E0
:10140000AC5480648060F875AC0475AD80E5AC5474
:1014100080648060F822E54A70171215A653B6BFA3
:10142000E5A930E7FB75B58C43B6401212320215C0
:1014300018AFB5EF30E2FA12158DE49000B7F02244
:10144000E4FF900085E0FEE4FDEDC3940774809412
:1014500080500CEE30E0010FEEC313FE0D80EA2247
:101460008E228F2312147FAE22AF237C407D101278
:10147000083DE47BE87A03F9F81207580213BF75B8
:10148000AC10E4F5AD00F5AD00F5AD00F5AD001222
:1014900015377F041215B2EF20E1F7221216081259
:1014A00015F6120E3B120C271215FF12162F1216EC
:1014B00008021041E5C8540453C8FB75CDBC75CC77
:1014C0006A75CBD875CA2042C822AE07EED3940005
:1014D0007480948040087F0F1215461E80EE22AD66
:1014E00007EDD394007480948040087F641214CA7E
:1014F0001D80EE22121528120EFCAF3AAE391214DE
:10150000607F1C021564121528120EFCAF36AE3532
:101510001214607F1C021564AFA7E4F5A78541A9EA
:10152000E5A930E7FB8FA72275B520E4F544F54225
:10153000F540F53DF53E22E5434402FD7F04EF44CE
:1015400010F5AC8DAD22EFD39400748094804004EC
:10155000001F80F22290006BE0547FF0E490006363
:10156000F0A3F022EF54FC4243E5434FFD7F040219
:10157000153EC2977F0A1214DFD2977F0A0214DF4A
:1015800075A5EC75F2EC75D50743D5102212123211
:10159000EF60069000B77401F022E4F5A9E5A954C4
:1015A00080648070F82285A94175A914E5A930E707
:1015B000FB22EF4490F5AC000000AFAD2243B280B7
:1015C000E5B2544060FA2275A47075F17075D48F3D
:1015D0002253DF7F75DC08E4F5EC22E4F5A753D94C
:1015E000BFF5D92253AFF8EF540742AF22538070B2
:1015F0005390FC0216107B807D807F34020DD77BD8
:101600004A7D017F07020DD7E4FBFD7F07020DD75E
:1016100053F17053F2FC2212191F02170DEF5407F9
:10162000F5AA221215ED0213931200030212D57FC0
:101630000A0214DF75C9102275E3402275A8A022A2
:1016400053FFF72275EF022253D9BF22021506027B
:1016500014F4222222006FE0015681026617049CD6
:10166000C9056637070000086C900948000A7FFD2D
:101670000B00080C00000D48BD1600FF1780051870
:1016800000671916591A19E01B13001C180020488E
:1016900000213FC722200023030024050A250380E0
:1016A000265A5A2755AA28440229B8002AFDB02BE9
:1016B000000F2C01002D0152070000201807228383
:1016C0000B0B800807013029B800348080234500C7
:1016D00029B00034808001000203070809070707CA
:1016E00007070707020202020202023937393939B5
:1016F00039372D2D2D2D2D2D2D1919191F1919198A
:10170000E531B401047547022275470122E4F52250
:10171000E522C39532501FE4FDFCAF22F142AF2217
:10172000121E55AF22F138AF22121EE7AF22F17C14
:10173000F1C2052280DA80C875F00EEF121F52E464
:10174000F0228F23E4FFEFC3953B501475F00EE5B4
:1017500023121FD2EF120828ECF0A3EDF00F80E661
:1017600075F00EE523121F52E4F0E5239016F9936D
:10177000FF75F00EE523121F8AEFF0228F2375F01C
:101780000EEF121F52E0543FF075F00EE523121FCA
:101790003BE4F0121F6BE5239016F2121FC0E52305
:1017A00025E02455F8A60608A607121F6BE523902E
:1017B00016EB121FC0E52325E02463F8A60608A651
:1017C0000722E4F551F550F54FF54E75520122E42C
:1017D000F522F521E521C395325010AF21F1EEBF7E
:1017E00001057522018004052180E9AF222275F0F0
:0E17F0000EEF121F52E07F0030E7027F012251
:1018000012158DE54764036018E54764016012E531
:10181000476402600201A19000B7E0640160020128
:10182000A19000B7E024FFB39201E4F0E547640221
:101830006006E547640170431217CFEF702AE53464
:10184000B4012A0546E546AE457002054514C39528
:1018500038EE95374017754703E4F545F5461216FF
:101860004F12162911A28005E4F545F546E547B467
:10187000010930012C121416C20122E547640370DD
:101880008212141611F1EF7002010312164C121697
:1018900023E531600475470222754701E4F545F5FB
:1018A0004622E4F525F524F523F522F548F549F51A
:1018B00025F524F523F522F521121366E4FCFDE558
:1018C000252FFFE5243EFEED3523FDEC35228F2547
:1018D0008E248D23F5220521E521C3940440DAAF3F
:1018E00025AE24AD23AC2278021207EA8E488F4938
:1018F00022121366E549254CFDE548354BFCD3EF34
:101900009DEE9C40037F0122C3E549954CFDE548CF
:10191000954BFCC3EF9DEE9C7F0050027F0122128D
:10192000162302164CE47873F67873E6FFC39532FB
:10193000501FB1367873E6FFB1EA7873E6FF517451
:101940007873E6FF715B7873E6FF913D78730680EC
:10195000D8E4F553F554F521E521C395325066E4FA
:10196000FDAF2151648E228F235160EF4E7004AE83
:1019700022AF23D3E5239FE5229E400CE5239FF56C
:1019800025E5229EF524800BC3EF9523F525EE95E2
:1019900022F524AD21AF25AE24B18E7524008F250C
:1019A000D3E525945AE5249400400AE525946EE594
:1019B000249400400CE5252554F554E5243553F5D1
:1019C0005305218093E47F07FEFDFCAB51AA50A98B
:1019D0004FA84E1206CDE47B08F1CCC004C005C070
:1019E00006C007AE53AF54E4FCFD78101207FDE4C7
:1019F0007B08F1CCD003D002D001D0001206C08FFA
:101A0000518E508D4F8C4EE4FBFA7901F8AF51AEF8
:101A100050AD4FAC4E120758C006C007AF32AB07EF
:101A20007A00E4F9F8D007D0061207587871A606B4
:101A300008A60718E6FE08E6FFC3940AEE940050D5
:101A40000BE54D700475520122154D22C3EF940F22
:101A5000EE94005007754D0A75520222755203220A
:101A60007D01AF2175F00EEFF1D2ED120828E0FEF6
:101A7000A3E0FF228F21E4FD51649000AFEEF0A3BC
:101A8000EFF051609000B1F1A07002A3E0700F90F0
:101A900000AFE0FFA3E09000B1CFF0A3EFF0AF21E3
:101AA000B17F9000B3F1A0FEA3E0FFD3F1B54021D8
:101AB000F198FF9000B2E02FFD9000B1E03EFCD322
:101AC000F1AA400D9000B2E02FFF9000B1E03EF18E
:101AD000909000B1E0FEA3E0FFC3F1B55023F19870
:101AE000FFC39000B2E09FFD9000B1E09EFCC3F107
:101AF000AA500EC39000B2E09FFF9000B1E09EF1AB
:101B000090E49000B1F0A3F0AF1FAB07FAF9F875BD
:101B1000F00EE521F158120810120758F181E51F67
:101B200024FFFFE434FFFEE4FCFD1206CDC004C038
:101B300005C006C007AF1FAB07E4FAF9F89000AF85
:101B4000120810120758D003D002D001D00012069C
:101B5000C075F00EE521F15802081C8F21EF25E039
:101B60002455F8E6F52408E6F525EF25E02463F88A
:101B7000E6F52208E6F523E4FDFCB1BC8E268F27AE
:101B8000F14DE054807028C3E5279523E526952282
:101B90005004AF21A12BD3E5279523E526952240BC
:101BA00035AF219106EF602EF14DE04480F022D355
:101BB000E5279525E52695244004AF21A120C3E51E
:101BC000279525E5269524500DAF2171D7EF6006A6
:101BD000F14DE0547FF022F135E0FF540FFD640F2A
:101BE00060010DF137EF54F0F0F137E04DF0ED64A6
:101BF0000F6007B115EDC39F4009F137E054F0F0D5
:101C00007F01227F0022F135E0FFC4540FFD640FF5
:101C100060010DF137EF540FF0F137E0FFEDC454E0
:101C2000F0FCEF4CF0ED640F6007B115EDC39F4081
:101C300009F137E0540FF07F01227F0022F141E0EB
:101C4000F522A3E0F523B170EF6002A114E5526420
:101C50000175F00E6007E52190000B8005E52190ED
:101C60000001120828E0F524A3E0F525D3E5259529
:101C700023E52495224007F15E240AF08010C3E595
:101C8000259523E52495225005F15E24F6F0F15EBA
:101C9000FFD3648094E4401075F00EE521F147E431
:101CA00075F001120633805FC3EF6480941C5064AA
:101CB000E5526401703FE5219016F993C313FF7557
:101CC000F00EE521F147E0FCA3E0C39FFFEC940098
:101CD000FE75F00EE521F158E0FCA3E0FDC39FEC9A
:101CE0009E75F00EE5219000055012120828ECF0C8
:101CF000A3EDF0801275F00EE52190000512082882
:101D000074FFF5F012063375F00EE52190000A120B
:101D10000828E4F022E5526401AF3360027F0F220D
:101D200075F00EEFF13BE054F0F02275F00EEFF19C
:101D30003BE0540FF0228F21121126AD07AC06AF05
:101D4000218C2D8D2EEF75F00EA42401F974003531
:101D5000F0FA7B019000AF120834120649FF9000A0
:101D600002E5F08FF0120693E52D852EF002067441
:101D700075F00EEFF152E07F0030E6027F01227530
:101D8000F00EEFF18AE075F010A4FFAEF0228E267F
:101D90008F27AF05B17FEE3395E0FDFCC004F183E2
:101DA000AE26AF277C007D6412083DD00012075894
:101DB000D3EF94FFEE940040027FFF22AB07D13AAD
:101DC000C3EF9DF529EE9CF52875F00EEBF147E089
:101DD000FEA3E0FFD3E5299FE5289E4009E5299F62
:101DE000FFE5289EFE22E4FEFF22F141E0FEA3E093
:101DF000FDAC0675F00EEFF18AE075F008A4AEF0C8
:101E00002DF523EE3CF522C3E5239DE5229C5005EC
:101E1000F14DE4F022AF21D13AD3EF9523EE952294
:101E200075F00EE5219000084008120828E04440B3
:101E3000F022120828E054BFF022E55275F00EB4EB
:101E40000106EF9000018004EF90000B120828E0DB
:101E5000FEA3E0FF228F23E4F525F526F52AF529D8
:101E6000F528F527121653E4F52AF529F528F52764
:101E700075F00EE523F147E4F0A3F0F525F526AF64
:101E800023121126E4FCFDE52A2FFFE5293EFEED95
:101E90003528FDEC35278F2A8E298D28F527052634
:101EA000E52670020525C39408E525940040D0AFCF
:101EB0002AAE29AD28AC2778031207EA8E2B8F2C87
:101EC00075F00EE523F147E52BF0A3E52CF0E4F5E2
:101ED00024E524C3953B500CAD2CAC2BAF23B14172
:101EE000052480ED021654F143E0FCA3E0FD75F0FB
:101EF0000EEFF158ECF0A3EDF075F00EEF90000D41
:101F0000120828E4F0A3F0E532C3940450028007DD
:101F1000E532C394085005751F80800AE532C394EA
:101F2000105003751F40E532C394205004751F10F4
:101F300022751F0822AE0775F00EEE900009020808
:101F4000288F2175F00EEF90000502082875F00E1D
:101F5000E52190000802082890000B02082875F07F
:101F60000EE52190000A120828E02275F00EE52304
:101F7000900007120828E0FF7E007C007D10120808
:101F80003DA804A905AA06AB07229000070208286D
:101F90009000AFF0A3EFF0229000B3E0FEA3E022A8
:101FA000EEF0A3EFF09000B1E0229000B0E09D9041
:101FB00000AFE09C229000B0E09F9000AFE09E2236
:101FC00093FFE4FCFDFE1206CDE47B64FAF9F8020F
:0C1FD000075890000112082875F002224A
:00000001FF
