:020000040000FA
:10000000020C8143F18F43A48F53807053A470433B
:10001000808F53F17043F20343A5035390FC53A523
:10002000FC43900353F2FC228FAB220211B7121053
:10003000EE1211792000030201FC90006AE04404F2
:10004000F0900067E054FDF0E4900077F0A3F090AA
:100050000068E054FDF0E490007CF01212C79000BC
:1000600084EFF0900069E020E71EE04480F0121574
:100070002E120F241213FC900086EFF0C394037429
:100080008094805003020566900082E0FF90008417
:10009000E0FE6F700302012790006CEFF090008289
:1000A000EEF0900069E020E005EE6408602090002A
:1000B00067E054F7F0E490006FF0A3F090007EF05A
:1000C00090006AE054FDF0900069E054FEF0E49086
:1000D0000071F0A3F0900069E020E618900089E03C
:1000E00004F07006900088E004F07FFF121135E400
:1000F00090006BF0900069E054F7F090006E74018E
:10010000F01213FC900086EFF0C394027480948088
:1001100040030201C390006AE020E4030201C3E44B
:1001200090006EF00201C390006AE020E403020137
:10013000BD900069E020E30790006DE030E3089097
:10014000006E7401F08042E490006EF0D390007273
:10015000E0945D900071E09402400A7FFF12113537
:100160001215D38024D3900072E09444900071E083
:10017000940240157F24121135900068E0547FF0FE
:10018000A3E054F7F0E054BFF0900067E030E733AD
:10019000C3900066E0943A900065E094004024909B
:1001A0000067E0547FF0E4900065F0A3F090006AEF
:1001B000E054EFF0900069E054BFF0800690006ECC
:1001C0007401F0900067E054BFF0E4900085F09077
:1001D0000069E054FBF0900067E020E00EE490003E
:1001E00071F0A3F0900067E04401F090006EE070C1
:1001F00003020528E4F012083B020528E490006C95
:10020000F0A3E054FDF090006AE030E42F90006726
:10021000E020E70BE04480F0E4900065F0A3F0906C
:100220000069E030E616D3900072E09414900071FB
:10023000E094004007900069E054BFF0900067E050
:1002400030E72BC3900066E09414900065E09400C2
:10025000401C900067E0547FF0E4900065F0A3F04C
:1002600090006AE054EFF0900069E054BFF0900015
:100270006AE054F7F0A3E054F7F0E4900084F090C3
:100280000082F0900067E054FEF090006BE030E7F1
:1002900017C3900064E0943A900063E09400400833
:1002A0007FFF12113512151190006BE020E7057FDA
:1002B000FF121135900068E0547FF090006AE0541E
:1002C000FDF0E030E011E054FEF090007EE004F03C
:1002D00090006DE054F7F0C3900070E0942C900013
:1002E0006FE094014020900067E054F7F0E4900044
:1002F0006FF0A3F090007EF090006AE054FDF09063
:100300000069E054FEF090007EE0D3940274809483
:1003100080406890006FE0FEA3E0FFD39400EE946D
:10032000004058EF942CEE94015050900069E0206A
:10033000E017900089E004F07006900088E004F077
:1003400090006FE4F0A374E0F0900069E04401F0E5
:10035000900068E054F7F0A3E054FBF0900070E0E8
:1003600030E007900068E04480F09000A27403F051
:10037000A3744DF0E4900071F0A3F0900069E030B8
:10038000E343E054F7F0E054BFF0E054DFF09000B6
:1003900068E020E730900071E0FEA3E0FFD3940016
:1003A000EE94004020EF9428EE9400501890007ACC
:1003B000EFF0E4900071F0A3F0900067E04404F0E7
:1003C000A3E04401F0900067E030E24290007AE060
:1003D000FF7E00C39428748094805032E4900065BE
:1003E000F0A3F0900068E030E024C3EF941E748026
:1003F00094804009E054FBF07FFF12113590006DAE
:10040000E04408F0900068E054FEF01214589000A8
:100410007AE0C3943A748094804013900067E0546B
:10042000FBF0E490007AF0900068E054FEF0900059
:1004300069E020E31EE030E61A900068E04480F0B6
:10044000900067E04440F0900069E054BFF0E49011
:100450000085F0900069E030E21FE054BFF0E05406
:10046000FBF0900068E04480F0900067E04440F0CA
:10047000900071A3E0900085F0900067E030E663A3
:10048000900085E0C39432748094805056900001AF
:10049000E0FEA3E0FF12105012100E7C007D0A1245
:1004A00005CE900081EDF0E02404F090007CE0FFA8
:1004B000900085E0FED39F402AEE9FFF900081E0F0
:1004C000FEEFC39E401D900085E090007CF0900000
:1004D00068E04480F0E4900077F0A3F090006DE0D5
:1004E00054F7F0900085E0C39432748094804038D3
:1004F0007FFF121135900067E054BFF0E490008553
:10050000F0900068E0547FF0900067E054F7F0E46A
:1005100090006FF0A3F090007EF090006AE054FD30
:10052000F0900069E054FEF0900069E020E729D3E4
:10053000900078E09482900077E09400401A900058
:1005400069E04480F012152E120F241215C4120F08
:10055000C0E4900077F0A3F0900068E030E707E097
:10056000547FF012145822EF8DF0A4A8F0CF8CF035
:10057000A428CE8DF0A42EFE22BC000BBE0029EFD5
:100580008DF084FFADF022E4CCF875F008EF2FFF7A
:10059000EE33FEEC33FCEE9DEC984005FCEE9DFE48
:1005A0000FD5F0E9E4CEFD22EDF8F5F0EE8420D28F
:1005B0001CFEADF075F008EF2FFFED33FD400798FE
:1005C0005006D5F0F222C398FD0FD5F0EA22C2D52D
:1005D000EC30E709B2D5E4C39DFDE49CFCEE30E7C6
:1005E00015B2D5E4C39FFFE49EFE120579C3E49DD6
:1005F000FDE49CFC800312057930D507C3E49FFF1E
:10060000E49EFE22C5F0F8A3E028F0C5F0F8E582EC
:10061000158270021583E038F022BB010A89828AB4
:1006200083E0F5F0A3E022500687F009E71922BB2A
:10063000FE07E3F5F009E3192289828A83E493F542
:10064000F074019322BB010A89828A83F0E5F0A34A
:10065000F0225006F709A7F01922BBFE06F3E5F0D9
:1006600009F31922F8BB0111E58229F582E5833AE5
:10067000F583E8F0E5F0A3F0225009E92582C8F6F9
:1006800008A6F022BBFE09E92582C8F2E5F008F2CF
:1006900022EF2BFFEE3AFEED39FDEC38FC22E88F1D
:1006A000F0A4CC8BF0A42CFCE98EF0A42CFC8AF0F6
:1006B000EDA42CFCEA8EF0A4CDA8F08BF0A42DCCF8
:1006C0003825F0FDE98FF0A42CCD35F0FCEB8EF051
:1006D000A4FEA9F0EB8FF0A4CFC5F02ECD39FEE437
:1006E0003CFCEAA42DCE35F0FDE43CFC2275F0087C
:1006F000758200EF2FFFEE33FECD33CDCC33CCC56A
:100700008233C5829BED9AEC99E58298400CF58284
:10071000EE9BFEED9AFDEC99FC0FD5F0D6E4CEFBF6
:10072000E4CDFAE4CCF9A88222B800C1B90059BAE4
:10073000002DEC8BF084CFCECDFCE5F0CBF9781812
:10074000EF2FFFEE33FEED33FDEC33FCEB33FB100C
:10075000D703994004EB99FB0FD8E5E4F9FA227826
:1007600018EF2FFFEE33FEED33FDEC33FCC933C938
:1007700010D7059BE99A4007EC9BFCE99AF90FD842
:10078000E0E4C9FAE4CCFB2275F010EF2FFFEE3362
:10079000FEED33FDCC33CCC833C810D7079BEC9AA1
:1007A000E899400AED9BFDEC9AFCE899F80FD5F02A
:1007B000DAE4CDFBE4CCFAE4C8F922E8600FECC33C
:1007C00013FCED13FDEE13FEEF13FFD8F122E860EA
:1007D0000FEFC333FFEE33FEED33FDEC33FCD8F106
:1007E00022E0FCA3E0FDA3E0FEA3E0FF22ECF0A3E7
:1007F000EDF0A3EEF0A3EFF022A42582F582E5F060
:100800003583F58322EBF0A3EAF0A3E9F022EC8E26
:10081000F0A4CCC5F0CCCDF8EFA4CEC5F02DFDE40E
:100820003CFCE8A42EC8C5F03DFDE43CFCEFA4FF71
:10083000E5F028FEE43DFDE43CFC22900084E02449
:10084000FE602E24FE603D24FC604C24F8605B2496
:10085000F0606A24E06078243F60030208E19000C1
:100860007B74DFF09000A27403F0A37490F002098F
:100870004C90007B74EFF09000A27403F0A37439E5
:10088000F002094C90007B74BFF09000A27403F05A
:10089000A3745AF002094C90007B747FF09000A280
:1008A0007403F0A37437F002094C90007B74FDF0E0
:1008B0009000A27403F0A37450F002094C90007BE6
:1008C00074FBF09000A27403F0A3743BF0807D9061
:1008D000007B74F7F09000A27403F0A3743FF080E3
:1008E0006BC3900072E0943A900071E0940050471E
:1008F0001213FC900086EFF0C39403748094804040
:10090000367F7F121135900068E04480F09000A29D
:100910007403F0A37437F0900069E04408F0E044F9
:1009200040F090006DE054F7F090006BE04480F0F0
:10093000E4900063F0A3F090006AE04410F09000AF
:1009400067E04480F0E4900065F0A3F0900071E06F
:10095000FEA3E0FFC3943AEE9400507090006AE06A
:1009600030E403020A29EF9402EE94005003020AD5
:1009700029A3E020E31AE04408F090007BE0FF1296
:10098000113590006BE04480F0E4900063F0A3F038
:10099000900069E04404F0900084E06408702590C1
:1009A0000067E020E30FE04408F0E490007EF09060
:1009B000006FF0A3F090006AE020E108E04402F04C
:1009C000E04401F0900068E04480F022D39000728F
:1009D000E0945D900071E0940240087FFF121135B1
:1009E0000215D3D3900072E09444900071E0940219
:1009F0004013900069E054FBF0900068E0547FF0F1
:100A00007F24021135900069E054FBF0900068E00B
:100A1000547FF090006BE054F7F0900069E020E61E
:100A2000087FFF12113512151122C1004200A800E3
:100A3000004200AA00004200AC00004100B60001E4
:100A40003F00013C00013207013B02013301023546
:100A500000080239007D023700960131010134019E
:100A60004100A6004100870041008A004100A70024
:100A70004100A10013080000000000000000000079
:100A80000000000000000000004100A00055008BA5
:100A90000000000000000000000000000000000056
:100AA000000000000042008800004200A200004157
:100AB000007F004100840041008200410075004138
:100AC000006C0041008600420077000042006F0089
:100AD0000042007100004100760041007E004100AC
:100AE000850041007C004100800041007B00410006
:100AF0007D0041007A004100797E41008100410083
:100B00006700410068004100690041006A0041003F
:100B10006B0041006D004100830041006E01420006
:100B200065000042006300004200730000014A00BB
:100B300002480000024B0096C1010245000001522C
:100B400001014D0000900067E030E00E900072E07F
:100B500004F07006900071E004F0900067E030E16E
:100B60000E900078E004F07006900077E004F090BA
:100B70000067E030E30E900070E004F07006900033
:100B80006FE004F0900067E030E21690007AE00435
:100B9000F0E075F00A84E5F07007900068E0440129
:100BA000F0900067E030E606900085E004F09000E9
:100BB00067E030E70E900066E004F0700690006594
:100BC000E004F090006BE030E70E900064E004F089
:100BD0007006900063E004F090006DE030E0069055
:100BE0000076E004F02290008B7432F0A37413F0CE
:100BF000752102E4F522C3E5229413748094805099
:100C00001A74082522F8E6FF748B2521F582E43456
:100C100000F583EFF00521052280DB7F0112149B94
:100C2000C295C293E4F521C3E521941574809480A4
:100C30005048748B2521F582E43400F583E0900060
:100C4000A0F0E4F522C3E522940874809480502635
:100C50009000A0E030E704D2968002C2967F031293
:100C60001486D2957F03121486C2959000A0E025C9
:100C7000E0F0052280CF052180ADD2937F020214DF
:100C800086121604787FE4F6D8FD758173020CCBCA
:100C900002105BE493A3F8E493A34003F68001F20F
:100CA00008DFF48029E493A3F85407240CC8C33365
:100CB000C4540F4420C8834004F456800146F6DF34
:100CC000E4800B0102040810204080900A2AE47E90
:100CD000019360BCA3FF543F30E509541FFEE49329
:100CE000A360010ECF54C025E060A840B8E493A3F0
:100CF000FAE493A3F8E493A3C8C582C8CAC583CA1B
:100D0000F0A3C8C582C8CAC583CADFE9DEE780BED2
:100D1000754B00754CFFE4FFEFC39407748094801B
:100D2000501DEF9016B593FEC3954CE4954B500CB7
:100D3000EF90169993FBEE754B00F54C0F80D9EFB1
:100D40009016B59375F004A485F04BF54CE5AF54BF
:100D500007FFEBD39F4017AE4BAF4C7C007D50128A
:100D600005677D641205798E4B8F4C1B80DFD3E5C0
:100D70004C9490E54B94014006754B01754C90C323
:100D8000E54C943CE54B94005006754B00754C3C8B
:100D900022E4F521F52220A7647F1412149B20A7DA
:100DA000177F1412149B0522E52270020521C394BB
:100DB0002CE521940140E722120F72E490007DF0AF
:100DC00090007DE0C3940374809480501CE4FF1273
:100DD00011357F6412149B7FFF1211357F6412144A
:100DE0009B90007DE004F080D7E4F521F5227FC8D8
:100DF00012149B0522E52270F5052180F122F5836E
:100E0000E493FB8F238D248B257F0112149BC295C5
:100E1000C293E4F528AF28C3EF9403748094805004
:100E20003FAF2874232FF8E6F526E4F527AF27C354
:100E3000EF9408748094805023E52630E704D2961E
:100E40008002C2967F03121486D2957F0312148605
:100E5000C295E52625E0F526052780D1052880B531
:100E6000D2937F02021486901FFDE493FFF4702357
:100E7000901FFC93F4701C901FFB93F47015901F4F
:100E8000FA93F4700E750855750901750A01750B12
:100E90003280138F08901FFAE493F509A3E493F5C9
:100EA0000AA3E493F50B751113900088E0FCA3E00E
:100EB000FDECF5128D139000A2E0F516A3E0F517F6
:100EC000E4F518751957900084E0F51A2285A922D7
:100ED000E53C704FAFAEEF700675AEA575AEF17D17
:100EE000087F051214FA7D077F061214FA7D807FB1
:100EF000041214FA75A9747DC07F041214FA7F32AB
:100F00007E00EF1F70011EEF4E70F77DC07F041250
:100F100014FA75B5208522A9E5A930E7FB7543C011
:100F2000753C0122E49000A1F09000A1E0FEC39482
:100F30002174809480503AE0FD75F003A42411F5EB
:100F400082E43416F583E493FFED75F003A42412D4
:100F5000F582E43416F583E493FDEE75F003A424E2
:100F600013F582E43416120DFE9000A1E004F08027
:100F7000B822E49000A1F09000A1E0FEC3940574B3
:100F8000809480503AE0FD75F003A42474F582E467
:100F90003416F583E493FFED75F003A42475F58210
:100FA000E43416F583E493FDEE75F003A42476F59E
:100FB00082E43416120DFE9000A1E004F080B82205
:100FC000E49000A1F09000A1E0FEC394017480942D
:100FD00080503AE0FD75F003A42489F582E43416CC
:100FE000F583E493FFED75F003A4248AF582E434DD
:100FF00016F583E493FDEE75F003A4248BF582E4EB
:101000003416120DFE9000A1E004F080B822AC1B53
:10101000AD1CAE1DAF1E7810EC4D4E4F70047CA57C
:101020007DA5C3EC13FCED13FDEE13FEEF13FF5093
:1010300010EC64CCFCED644CFDEE644EFEEF64CE2F
:10104000FFD8DF8C1B8D1C8E1D8F1EEE547FFE2261
:101050008E1B8F1C74A5F51DF51E2212129643A639
:1010600080D2A7D2CA121322C2CA12180012191FA4
:10107000120B45D2CA1217DAEF600BD200E49000CF
:1010800073F0A3F08010C200900074E004F07006CA
:10109000900073E004F012002EC2CAC2CF75CDBC1E
:1010A00075CC6A80C5AE07EE90169293FF120028A9
:1010B000EE90169993FF1215A075F00EEEA424057C
:1010C000F582E5F03400F583E0FCA3E04C6008EE27
:1010D0009016A093FF80027F041215D912160E12EB
:1010E00012F58E2D8F2E1215CCAE2DAF2E22900024
:1010F00068E020E23FE490006FF0A3F090007EF003
:1011000090006AF0900067F0A3F0A3F090006BF0FD
:1011100090006DF0900084F0900068E04404F0903E
:101120000067E04402F0E4900077F0A3F0900085BF
:10113000F0121511228F23E4F524C3E524940874DA
:1011400080948050237F0112149BC284E52330E7F2
:1011500004D2868002C2867F0112149BD284E523CA
:1011600025E0F523052480D2C2857F01121486D2A2
:10117000857F01121486C28522C3900074E0948298
:10118000900073E09400402E900068E020E11B1274
:101190000FC0900068E04402F0900067E054FDF05A
:1011A000E4900077F0A3F01215117FFF1211359033
:1011B0000068E054FBF022C0E0C0F0C083C082C0F1
:1011C000D075D000C000C001C002C003C004C0057B
:1011D000C006C007C2CF120B45D007D006D005D03D
:1011E00004D003D002D001D000D0D0D082D083D0A0
:1011F000F0D0E032AFB5EF30E203754201EF30E3FB
:1012000003754001EF30E103753E01EF30E40F7FDD
:10121000FFEFD394007480948040031F80F375B572
:1012200020E5426006E4F5427F01227F0022E4F5DA
:1012300021C3E5219408748094805019C3740795E4
:1012400021FF1215A01212F5C3EF9417EE94FC4083
:1012500004052180DCE52164087002FF22C37407C5
:101260009521FF2275B08875D28F75D30353F33F54
:1012700043F34075AA8843F338E55264016005439F
:10128000AA04800343AA0253AFF812122EEF42AF12
:10129000120D100212F585A72112159712158D1245
:1012A00015F012158312153C1215F41215FC1216C6
:1012B000001215791213A71215561214701215D3B5
:1012C0001215F88521A722E4F521F522C3E5229421
:1012D0000774809480501BAF22121EE1EF600FAFA5
:1012E00022A8077401088002C333D8FC42210522DA
:1012F00080DAAF212275B08853B0DF43B010E54AE1
:10130000700675CE0175B540E5B030E5FB85EE2F72
:1013100085ED30E4F5B0E54A7003121549AE2FAF04
:101320003022E4900069F012152E120F24120D9154
:101330001215C47F5012149BE4FF1211357FC8129E
:10134000149B7FFF121135E4900077F0A3F022E4A4
:10135000F5AA53F3C043F3C053F3C743F318F5FEA4
:10136000F5FDF5D2F5D343AF1075B08853B0DF4328
:10137000B010E5B030E5FBE4F5B0228F278E268D66
:10138000258C2475AC14E54354F7F5AD0075AC1805
:101390008527AD008526AD008525AD008524AD00EF
:1013A00075AC148543AD2275AC0575AD28E5AC541C
:1013B00080648060F875AC0875AD14E5AC54806449
:1013C0008060F875AC0475AD80E5AC5480648060D5
:1013D000F822E54A701712156253B6BFE5A930E747
:1013E000FB75B58C43B6401211F40214D4AFB5EFBF
:1013F00030E2FA121549E49000B6F022E4FF9000C2
:1014000084E0FEE4FDEDC3940774809480500CEEFC
:1014100030E0010FEEC313FE0D80EA228E228F23EF
:1014200012143BAE22AF237C407D1012080EE47BE9
:10143000E87A03F9F812072902137B75AC10E4F57A
:10144000AD00F5AD00F5AD00F5AD001214F37F046D
:1014500012156EEF20E1F7221215C41215B2120E0A
:1014600067120BE61215BB1215EB1215C4020FC062
:10147000E5C8540453C8FB75CDBC75CC6A75CBBCAC
:1014800075CA6A42C822AE07EED394007480948075
:1014900040087F0F1215021E80EE22AD07EDD39497
:1014A000007480948040087F641214861D80EE22B0
:1014B0001214E4120ECDAF3AAE3912141C7F1C0286
:1014C00015201214E4120ECDAF36AE3512141C7F67
:1014D0001C021520AFA7E4F5A78541A9E5A930E7CF
:1014E000FB8FA72275B520E4F544F542F540F53DA4
:1014F000F53E22E5434402FD7F04EF4410F5AC8D38
:10150000AD22EFD39400748094804004001F80F2D9
:101510002290006BE0547FF0E4900063F0A3F0228F
:10152000EF54FC4243E5434FFD7F040214FAC29797
:101530007F0A12149BD2977F0A02149B75A5EC7543
:10154000F2EC75D50743D510221211F4EF60069026
:1015500000B67401F022E4F5A9E5A9548064807016
:10156000F82285A94175A914E5A930E7FB22EF44CB
:1015700090F5AC000000AFAD2243B280E5B254401C
:1015800060FA2275A47075F17075D48F2253DF7FD5
:1015900075DC08E4F5EC22E4F5A753D9BFF5D922B0
:1015A00053AFF8EF540742AF225380705390FC02C0
:1015B00015CC7B807D807F34020E037B4A7D017FCA
:1015C00007020E03E4FBFD7F07020E0353F1705385
:1015D000F2FC221217FA0216C9EF5407F5AA2212DA
:1015E00015A902134F1200030212647F0A02149B12
:1015F00075C9102275E3402275A8A02253FFF72277
:1016000075EF022253D9BF220214C20214B0222263
:1016100022006FE0015681026617049CC9056637F7
:10162000070000086C900948000A7FFD0B00080CB9
:1016300000000D48BD1600FF178005180067191639
:10164000591A19E01B13001C1800204800213FC73D
:1016500022200023030024050A250380265A5A2746
:1016600055AA28440229B8002AFDB02B000F2C01EE
:10167000002D015207000020180722830B0B800861
:1016800007013029B80034808023450029B0003498
:1016900080800100020307080907070707070707FB
:1016A00002020202020202393939393939392D2D43
:1016B0002D2D2D2D2D1F1F1F1F1F1F1FE531B401A5
:1016C000047547022275470122E4F522E522C395FD
:1016D00032501EE4FDFCAF22D1FDAF22121E4FAFEF
:1016E00022D1F3AF22F17DAF22F137F1CD05228077
:1016F000DB80C975F00EEF121F0DE4F0228F23E49A
:10170000FFEFC3953B501475F00EE523121F8DEFCC
:101710001207F9ECF0A3EDF00F80E675F00EE5236B
:10172000121F0DE4F0E5239016B593FF75F00EE55A
:1017300023121F75EFF0228F2375F00EEF121F0D8D
:10174000E0543FF075F00EE523121EF6E4F0121F90
:1017500056E5239016AE121F7BE52325E02455F8AD
:10176000A60608A607121F56E5239016A7121F7B90
:10177000E52325E02463F8A60608A60722121EFE2C
:10178000E0FCA3E0FD75F00EEF121F13ECF0A3EDEB
:10179000F075F00EEF90000D1207F9E4F0A3F0E5FC
:1017A00032C3940450028007E532C3940850057593
:1017B0001F80800AE532C394105003751F40E53244
:1017C000C394205004751F1022751F0822E4F551A0
:1017D000F550F54FF54E75520122E4F522F521E55D
:1017E00021C395325011AF21121EE1BF01057522B0
:0E17F000018004052180E8AF2222B1DFC1088C
:10180000121549E54764036018E54764016012E575
:10181000476402600201A19000B6E0640160020129
:10182000A19000B6E024FFB39201E4F0E547640222
:101830006006E547640170431217DAEF702AE53459
:10184000B4012A0546E546AE457002054514C39528
:1018500038EE95374017754703E4F545F5461216FF
:101860000B1215E511A28005E4F545F546E547B4F0
:10187000010930012C1213D2C20122E54764037022
:10188000821213D211F1EF70020103121608121521
:10189000DFE531600475470222754701E4F545F53F
:1018A0004622E4F525F524F523F522F548F549F51A
:1018B00025F524F523F522F5211212F5E4FCFDE5CA
:1018C000252FFFE5243EFEED3523FDEC35228F2547
:1018D0008E248D23F5220521E521C3940440DAAF3F
:1018E00025AE24AD23AC2278021207BB8E488F4967
:1018F000221212F5E549254CFDE548354BFCD3EFA6
:101900009DEE9C40037F0122C3E549954CFDE548CF
:10191000954BFCC3EF9DEE9C7F0050027F0122E4BB
:101920007873F67873E6FFC39532501FB130787341
:10193000E6FFB1E47873E6FF516E7873E6FF715508
:101940007873E6FF913778730680D8E4F553F55441
:10195000F521E521C395325066E4FDAF21515E8E3D
:10196000228F23515AEF4E7004AE22AF23D3E523CA
:101970009FE5229E400CE5239FF525E5229EF52458
:10198000800BC3EF9523F525EE9522F524AD21AF0D
:1019900025AE24B1887524008F25D3E525945AE51A
:1019A000249400400AE525946EE5249400400CE55B
:1019B000252554F554E5243553F55305218093E44A
:1019C0007F07FEFDFCAB51AA50A94FA84E12069E00
:1019D000E47B08F187C004C005C006C007AE53AF62
:1019E00054E4FCFD78101207CEE47B08F187D003A5
:1019F000D002D001D0001206918F518E508D4F8CA5
:101A00004EE4FBFA7901F8AF51AE50AD4FAC4E1237
:101A10000729C006C007AF32AB077A00E4F9F8D057
:101A200007D0061207297871A60608A60718E6FE51
:101A300008E6FFC3940AEE9400500BE54D70047560
:101A4000520122154D22C3EF940FEE9400500775FA
:101A50004D0A75520222755203227D01AF2175F0A5
:101A60000EEFF18DED1207F9E0FEA3E0FF228F21CA
:101A7000E4FD515E9000AEEEF0A3EFF0515A9000FD
:101A8000B0F1367002A3E0700F9000AEE0FFA3E06B
:101A90009000B0CFF0A3EFF0AF21B1799000B2F198
:101AA00036FEA3E0FFD3F14B4021F12EFF9000B1B1
:101AB000E02FFD9000B0E03EFCD3F140400D9000DF
:101AC000B1E02FFF9000B0E03EF1269000B0E0FEC4
:101AD000A3E0FFC3F14B5023F12EFFC39000B1E010
:101AE0009FFD9000B0E09EFCC3F140500EC39000FB
:101AF000B1E09FFF9000B0E09EF126E49000B0F0CE
:101B0000A3F0AF1FAB07FAF9F875F00EE521F1135A
:101B10001207E1120729F16CE51F24FFFFE434FFEF
:101B2000FEE4FCFD12069EC004C005C006C007AF5F
:101B30001FAB07E4FAF9F89000AE1207E11207298B
:101B4000D003D002D001D00012069175F00EE5212D
:101B5000F1130207ED8F21EF25E02455F8E6F52477
:101B600008E6F525EF25E02463F8E6F52208E6F51A
:101B700023E4FDFCB1B68E268F27F108E054807077
:101B800028C3E5279523E52695225004AF21A125FA
:101B9000D3E5279523E52695224035AF219100EF27
:101BA000602EF108E04480F022D3E5279525E52654
:101BB00095244004AF21A11AC3E5279525E5269574
:101BC00024500DAF2171D1EF6006F108E0547FF091
:101BD00022D1F0E0FF540FFD640F60010DD1F2EF50
:101BE00054F0F0D1F2E04DF0ED640F6007B10FED6D
:101BF000C39F4009D1F2E054F0F07F01227F002220
:101C0000D1F0E0FFC4540FFD640F60010DD1F2EF7D
:101C1000540FF0D1F2E0FFEDC454F0FCEF4CF0EDC6
:101C2000640F6007B10FEDC39F4009D1F2E0540F7C
:101C3000F07F01227F0022D1FCE0F522A3E0F52312
:101C4000B16AEF6002A10EE552640175F00E600703
:101C5000E52190000B8005E5219000011207F9E0D5
:101C6000F524A3E0F525D3E5259523E52495224029
:101C700007F119240AF08010C3E5259523E5249582
:101C8000225005F11924F6F0F119FFD3648094E491
:101C9000401075F00EE521F102E475F00112060422
:101CA000805FC3EF6480941C5064E5526401703F10
:101CB000E5219016B593C313FF75F00EE521F102EF
:101CC000E0FCA3E0C39FFFEC9400FE75F00EE5215D
:101CD000F113E0FCA3E0FDC39FEC9E75F00EE5213F
:101CE00090000550121207F9ECF0A3EDF080127588
:101CF000F00EE5219000051207F974FFF5F01206C9
:101D00000475F00EE52190000A1207F9E4F022E5CF
:101D1000526401AF3360027F0F2275F00EEFD1F6EF
:101D2000E054F0F02275F00EEFD1F6E0540FF022FF
:101D30008F211210A5AD07AC06AF218C2D8D2EEF93
:101D400075F00EA42401F9740035F0FA7B019000BF
:101D5000AE12080512061AFF900002E5F08FF0128D
:101D60000664E52D852EF002064575F00EEFF10DA7
:101D7000E07F0030E6027F012275F00EEFF175E0A2
:101D800075F010A4FFAEF0228E268F27AF05B17933
:101D9000EE3395E0FDFCC004F16EAE26AF277C006B
:101DA0007D6412080ED000120729D3EF94FFEE9441
:101DB0000040027FFF22AB07D134C3EF9DF529EE2F
:101DC0009CF52875F00EEBF102E0FEA3E0FFD3E5F1
:101DD000299FE5289E4009E5299FFFE5289EFE22D0
:101DE000E4FEFF22D1FCE0FEA3E0FDAC0675F00EA0
:101DF000EFF175E075F008A4AEF02DF523EE3CF59B
:101E000022C3E5239DE5229C5005F108E4F022AFB2
:101E100021D134D3EF9523EE952275F00EE5219074
:101E2000000840081207F9E04440F0221207F9E0E8
:101E300054BFF022E55275F00EB40106EF90000198
:101E40008004EF90000B1207F9E0FEA3E0FF228F61
:101E500023E4F525F526F52AF529F528F5271216A8
:101E60000FE4F52AF529F528F52775F00EE523F19D
:101E700002E4F0A3F0F525F526AF231210A5E4FC4B
:101E8000FDE52A2FFFE5293EFEED3528FDEC35273F
:101E90008F2A8E298D28F5270526E526700205252F
:101EA000C39408E525940040D0AF2AAE29AD28ACF4
:101EB0002778031207BB8E2B8F2C75F00EE523F1CC
:101EC00002E52BF0A3E52CF0E4F524E524C3953BD3
:101ED000500CAD2CAC2BAF23B13B052480ED02168A
:101EE0001075F00EEFF10DE07F0030E7027F012268
:101EF000AE0775F00EEE9000090207F98F2175F01C
:101F00000EEF9000050207F975F00EE5219000082C
:101F10000207F990000B0207F975F00EE521900019
:101F20000A1207F9E0229000AEF0A3EFF022900031
:101F3000B2E0FEA3E022EEF0A3EFF09000B0E022CA
:101F40009000AFE09D9000AEE09C229000AFE09F3B
:101F50009000AEE09E2275F00EE523900007120778
:101F6000F9E0FF7E007C007D1012080EA804A90590
:101F7000AA06AB07229000070207F993FFE4FCFDD5
:101F8000FE12069EE47B64FAF9F80207299000012C
:071F90001207F975F00222AF
:00000001FF
