:020000040000FA
:10000000020C8143F18F43A48F53807053A470433B
:10001000808F53F17043F20343A5035390FC53A523
:10002000FC43900353F2FC228FAB220211B7121053
:10003000EE1211792000030201FC90006AE04404F2
:10004000F0900067E054FDF0E4900077F0A3F090AA
:100050000068E054FDF0E490007CF01212C49000BF
:1000600084EFF0900069E020E71EE04480F0121574
:100070002B120F241213F9900086EFF0C39403742F
:100080008094805003020566900082E0FF90008417
:10009000E0FE6F700302012790006CEFF090008289
:1000A000EEF0900069E020E005EE6408602090002A
:1000B00067E054F7F0E490006FF0A3F090007EF05A
:1000C00090006AE054FDF0900069E054FEF0E49086
:1000D0000071F0A3F0900069E020E618900089E03C
:1000E00004F07006900088E004F07FFF121135E400
:1000F00090006BF0900069E054F7F090006E74018E
:10010000F01213F9900086EFF0C39402748094808B
:1001100040030201C390006AE020E4030201C3E44B
:1001200090006EF00201C390006AE020E403020137
:10013000BD900069E020E30790006DE030E3089097
:10014000006E7401F08042E490006EF0D390007273
:10015000E0945D900071E09402400A7FFF12113537
:100160001215D08024D3900072E09444900071E086
:10017000940240157F24121135900068E0547FF0FE
:10018000A3E054F7F0E054BFF0900067E030E733AD
:10019000C3900066E0943A900065E094004024909B
:1001A0000067E0547FF0E4900065F0A3F090006AEF
:1001B000E054EFF0900069E054BFF0800690006ECC
:1001C0007401F0900067E054BFF0E4900085F09077
:1001D0000069E054FBF0900067E020E00EE490003E
:1001E00071F0A3F0900067E04401F090006EE070C1
:1001F00003020528E4F012083B020528E490006C95
:10020000F0A3E054FDF090006AE030E42F90006726
:10021000E020E70BE04480F0E4900065F0A3F0906C
:100220000069E030E616D3900072E09414900071FB
:10023000E094004007900069E054BFF0900067E050
:1002400030E72BC3900066E09414900065E09400C2
:10025000401C900067E0547FF0E4900065F0A3F04C
:1002600090006AE054EFF0900069E054BFF0900015
:100270006AE054F7F0A3E054F7F0E4900084F090C3
:100280000082F0900067E054FEF090006BE030E7F1
:1002900017C3900064E0943A900063E09400400833
:1002A0007FFF12113512150E90006BE020E7057FDD
:1002B000FF121135900068E0547FF090006AE0541E
:1002C000FDF0E030E011E054FEF090007EE004F03C
:1002D00090006DE054F7F0C3900070E0942C900013
:1002E0006FE094014020900067E054F7F0E4900044
:1002F0006FF0A3F090007EF090006AE054FDF09063
:100300000069E054FEF090007EE0D3940274809483
:1003100080406890006FE0FEA3E0FFD39400EE946D
:10032000004058EF942CEE94015050900069E0206A
:10033000E017900089E004F07006900088E004F077
:1003400090006FE4F0A374E0F0900069E04401F0E5
:10035000900068E054F7F0A3E054FBF0900070E0E8
:1003600030E007900068E04480F09000A27403F051
:10037000A3744DF0E4900071F0A3F0900069E030B8
:10038000E343E054F7F0E054BFF0E054DFF09000B6
:1003900068E020E730900071E0FEA3E0FFD3940016
:1003A000EE94004020EF9428EE9400501890007ACC
:1003B000EFF0E4900071F0A3F0900067E04404F0E7
:1003C000A3E04401F0900067E030E24290007AE060
:1003D000FF7E00C39428748094805032E4900065BE
:1003E000F0A3F0900068E030E024C3EF941E748026
:1003F00094804009E054FBF07FFF12113590006DAE
:10040000E04408F0900068E054FEF01214559000AB
:100410007AE0C3943A748094804013900067E0546B
:10042000FBF0E490007AF0900068E054FEF0900059
:1004300069E020E31EE030E61A900068E04480F0B6
:10044000900067E04440F0900069E054BFF0E49011
:100450000085F0900069E030E21FE054BFF0E05406
:10046000FBF0900068E04480F0900067E04440F0CA
:10047000900071A3E0900085F0900067E030E663A3
:10048000900085E0C39432748094805056900001AF
:10049000E0FEA3E0FF12105012100E7C007D0A1245
:1004A00005CE900081EDF0E02404F090007CE0FFA8
:1004B000900085E0FED39F402AEE9FFF900081E0F0
:1004C000FEEFC39E401D900085E090007CF0900000
:1004D00068E04480F0E4900077F0A3F090006DE0D5
:1004E00054F7F0900085E0C39432748094804038D3
:1004F0007FFF121135900067E054BFF0E490008553
:10050000F0900068E0547FF0900067E054F7F0E46A
:1005100090006FF0A3F090007EF090006AE054FD30
:10052000F0900069E054FEF0900069E020E729D3E4
:10053000900078E09482900077E09400401A900058
:1005400069E04480F012152B120F241215C1120F0E
:10055000C0E4900077F0A3F0900068E030E707E097
:10056000547FF012145522EF8DF0A4A8F0CF8CF038
:10057000A428CE8DF0A42EFE22BC000BBE0029EFD5
:100580008DF084FFADF022E4CCF875F008EF2FFF7A
:10059000EE33FEEC33FCEE9DEC984005FCEE9DFE48
:1005A0000FD5F0E9E4CEFD22EDF8F5F0EE8420D28F
:1005B0001CFEADF075F008EF2FFFED33FD400798FE
:1005C0005006D5F0F222C398FD0FD5F0EA22C2D52D
:1005D000EC30E709B2D5E4C39DFDE49CFCEE30E7C6
:1005E00015B2D5E4C39FFFE49EFE120579C3E49DD6
:1005F000FDE49CFC800312057930D507C3E49FFF1E
:10060000E49EFE22C5F0F8A3E028F0C5F0F8E582EC
:10061000158270021583E038F022BB010A89828AB4
:1006200083E0F5F0A3E022500687F009E71922BB2A
:10063000FE07E3F5F009E3192289828A83E493F542
:10064000F074019322BB010A89828A83F0E5F0A34A
:10065000F0225006F709A7F01922BBFE06F3E5F0D9
:1006600009F31922F8BB0111E58229F582E5833AE5
:10067000F583E8F0E5F0A3F0225009E92582C8F6F9
:1006800008A6F022BBFE09E92582C8F2E5F008F2CF
:1006900022EF2BFFEE3AFEED39FDEC38FC22E88F1D
:1006A000F0A4CC8BF0A42CFCE98EF0A42CFC8AF0F6
:1006B000EDA42CFCEA8EF0A4CDA8F08BF0A42DCCF8
:1006C0003825F0FDE98FF0A42CCD35F0FCEB8EF051
:1006D000A4FEA9F0EB8FF0A4CFC5F02ECD39FEE437
:1006E0003CFCEAA42DCE35F0FDE43CFC2275F0087C
:1006F000758200EF2FFFEE33FECD33CDCC33CCC56A
:100700008233C5829BED9AEC99E58298400CF58284
:10071000EE9BFEED9AFDEC99FC0FD5F0D6E4CEFBF6
:10072000E4CDFAE4CCF9A88222B800C1B90059BAE4
:10073000002DEC8BF084CFCECDFCE5F0CBF9781812
:10074000EF2FFFEE33FEED33FDEC33FCEB33FB100C
:10075000D703994004EB99FB0FD8E5E4F9FA227826
:1007600018EF2FFFEE33FEED33FDEC33FCC933C938
:1007700010D7059BE99A4007EC9BFCE99AF90FD842
:10078000E0E4C9FAE4CCFB2275F010EF2FFFEE3362
:10079000FEED33FDCC33CCC833C810D7079BEC9AA1
:1007A000E899400AED9BFDEC9AFCE899F80FD5F02A
:1007B000DAE4CDFBE4CCFAE4C8F922E8600FECC33C
:1007C00013FCED13FDEE13FEEF13FFD8F122E860EA
:1007D0000FEFC333FFEE33FEED33FDEC33FCD8F106
:1007E00022E0FCA3E0FDA3E0FEA3E0FF22ECF0A3E7
:1007F000EDF0A3EEF0A3EFF022A42582F582E5F060
:100800003583F58322EBF0A3EAF0A3E9F022EC8E26
:10081000F0A4CCC5F0CCCDF8EFA4CEC5F02DFDE40E
:100820003CFCE8A42EC8C5F03DFDE43CFCEFA4FF71
:10083000E5F028FEE43DFDE43CFC22900084E02449
:10084000FE602E24FE603D24FC604C24F8605B2496
:10085000F0606A24E06078243F60030208E19000C1
:100860007B74DFF09000A27403F0A37490F002098F
:100870004C90007B74EFF09000A27403F0A37439E5
:10088000F002094C90007B74BFF09000A27403F05A
:10089000A3745AF002094C90007B747FF09000A280
:1008A0007403F0A37437F002094C90007B74FDF0E0
:1008B0009000A27403F0A37450F002094C90007BE6
:1008C00074FBF09000A27403F0A3743BF0807D9061
:1008D000007B74F7F09000A27403F0A3743FF080E3
:1008E0006BC3900072E0943A900071E0940050471E
:1008F0001213F9900086EFF0C39403748094804043
:10090000367F7F121135900068E04480F09000A29D
:100910007403F0A37437F0900069E04408F0E044F9
:1009200040F090006DE054F7F090006BE04480F0F0
:10093000E4900063F0A3F090006AE04410F09000AF
:1009400067E04480F0E4900065F0A3F0900071E06F
:10095000FEA3E0FFC3943AEE9400507090006AE06A
:1009600030E403020A29EF9402EE94005003020AD5
:1009700029A3E020E31AE04408F090007BE0FF1296
:10098000113590006BE04480F0E4900063F0A3F038
:10099000900069E04404F0900084E06408702590C1
:1009A0000067E020E30FE04408F0E490007EF09060
:1009B000006FF0A3F090006AE020E108E04402F04C
:1009C000E04401F0900068E04480F022D39000728F
:1009D000E0945D900071E0940240087FFF121135B1
:1009E0000215D0D3900072E09444900071E094021C
:1009F0004013900069E054FBF0900068E0547FF0F1
:100A00007F24021135900069E054FBF0900068E00B
:100A1000547FF090006BE054F7F0900069E020E61E
:100A2000087FFF12113512150E22C1004200A800E6
:100A3000004200AA00004200AC00004100B60001E4
:100A40003F00013C00013207013B02013301023546
:100A500000080239007D023700960131010134019E
:100A60004100A6004100870041008A004100A70024
:100A70004100A10013080000000000000000000079
:100A80000000000000000000004100A00055008BA5
:100A90000000000000000000000000000000000056
:100AA000000000000042008800004200A200004157
:100AB000007F004100840041008200410075004138
:100AC000006C0041008600420077000042006F0089
:100AD0000042007100004100760041007E004100AC
:100AE000850041007C004100800041007B00410006
:100AF0007D0041007A004100797E41008100410083
:100B00006700410068004100690041006A0041003F
:100B10006B0041006D004100830041006E01420006
:100B200065000042006300004200730000014A00BB
:100B300002480000024B0096C1010245000001522C
:100B400001014D0000900067E030E00E900072E07F
:100B500004F07006900071E004F0900067E030E16E
:100B60000E900078E004F07006900077E004F090BA
:100B70000067E030E30E900070E004F07006900033
:100B80006FE004F0900067E030E21690007AE00435
:100B9000F0E075F00A84E5F07007900068E0440129
:100BA000F0900067E030E606900085E004F09000E9
:100BB00067E030E70E900066E004F0700690006594
:100BC000E004F090006BE030E70E900064E004F089
:100BD0007006900063E004F090006DE030E0069055
:100BE0000076E004F02290008B7432F0A37413F0CE
:100BF000752102E4F522C3E5229413748094805099
:100C00001A74082522F8E6FF748B2521F582E43456
:100C100000F583EFF00521052280DB7F0112149897
:100C2000C295C293E4F521C3E521941574809480A4
:100C30005048748B2521F582E43400F583E0900060
:100C4000A0F0E4F522C3E522940874809480502635
:100C50009000A0E030E704D2968002C2967F031293
:100C60001483D2957F03121483C2959000A0E025CF
:100C7000E0F0052280CF052180ADD2937F020214DF
:100C8000831215FD787FE4F6D8FD758173020CCBD5
:100C900002105BE493A3F8E493A34003F68001F20F
:100CA00008DFF48029E493A3F85407240CC8C33365
:100CB000C4540F4420C8834004F456800146F6DF34
:100CC000E4800B0102040810204080900A2AE47E90
:100CD000019360BCA3FF543F30E509541FFEE49329
:100CE000A360010ECF54C025E060A840B8E493A3F0
:100CF000FAE493A3F8E493A3C8C582C8CAC583CA1B
:100D0000F0A3C8C582C8CAC583CADFE9DEE780BED2
:100D1000754B00754CFFE4FFEFC39407748094801B
:100D2000501DEF9016AE93FEC3954CE4954B500CBE
:100D3000EF90169293FBEE754B00F54C0F80D9EFB8
:100D40009016AE9375F004A485F04BF54CE5AF54C6
:100D500007FFEBD39F4017AE4BAF4C7C007D50128A
:100D600005677D641205798E4B8F4C1B80DFD3E5C0
:100D70004C9490E54B94014006754B01754C90C323
:100D8000E54C943CE54B94005006754B00754C3C8B
:100D900022E4F521F52220A7647F1412149820A7DD
:100DA000177F141214980522E52270020521C394BE
:100DB0002CE521940140E722120F72E490007DF0AF
:100DC00090007DE0C3940374809480501CE4FF1273
:100DD00011357F641214987FFF1211357F6412144D
:100DE0009890007DE004F080D7E4F521F5227FC8DB
:100DF0001214980522E52270F5052180F122F58371
:100E0000E493FB8F238D248B257F01121498C295C8
:100E1000C293E4F528AF28C3EF9403748094805004
:100E20003FAF2874232FF8E6F526E4F527AF27C354
:100E3000EF9408748094805023E52630E704D2961E
:100E40008002C2967F03121483D2957F031214830B
:100E5000C295E52625E0F526052780D1052880B531
:100E6000D2937F02021483901FFDE493FFF470235A
:100E7000901FFC93F4701C901FFB93F47015901F4F
:100E8000FA93F4700E750855750901750A01750B12
:100E90003280138F08901FFAE493F509A3E493F5C9
:100EA0000AA3E493F50B751113900088E0FCA3E00E
:100EB000FDECF5128D139000A2E0F516A3E0F517F6
:100EC000E4F518751957900084E0F51A2285A922D7
:100ED000E53C704FAFAEEF700675AEA575AEF17D17
:100EE000087F051214F77D077F061214F77D807FB7
:100EF000041214F775A9747DC07F041214F77F32B1
:100F00007E00EF1F70011EEF4E70F77DC07F041250
:100F100014F775B5208522A9E5A930E7FB7543C014
:100F2000753C0122E49000A1F09000A1E0FEC39482
:100F30002174809480503AE0FD75F003A4240AF5F2
:100F400082E43416F583E493FFED75F003A4240BDB
:100F5000F582E43416F583E493FDEE75F003A424E2
:100F60000CF582E43416120DFE9000A1E004F0802E
:100F7000B822E49000A1F09000A1E0FEC3940574B3
:100F8000809480503AE0FD75F003A4246DF582E46E
:100F90003416F583E493FFED75F003A4246EF58217
:100FA000E43416F583E493FDEE75F003A4246FF5A5
:100FB00082E43416120DFE9000A1E004F080B82205
:100FC000E49000A1F09000A1E0FEC394017480942D
:100FD00080503AE0FD75F003A42482F582E43416D3
:100FE000F583E493FFED75F003A42483F582E434E4
:100FF00016F583E493FDEE75F003A42484F582E4F2
:101000003416120DFE9000A1E004F080B822AC1B53
:10101000AD1CAE1DAF1E7810EC4D4E4F70047CA57C
:101020007DA5C3EC13FCED13FDEE13FEEF13FF5093
:1010300010EC64CCFCED644CFDEE644EFEEF64CE2F
:10104000FFD8DF8C1B8D1C8E1D8F1EEE547FFE2261
:101050008E1B8F1C74A5F51DF51E2212129643A639
:1010600080D2A7D2CA12131FC2CA12180012191FA7
:10107000120B45D2CA1217D2EF600BD200E49000D7
:1010800073F0A3F08010C200900074E004F07006CA
:10109000900073E004F012002EC2CAC2CF75CDBC1E
:1010A00075CC6A80C5AE07EE90168B93FF120028B0
:1010B000EE90169293FF12159D75F00EEEA4240586
:1010C000F582E5F03400F583E0FCA3E04C6008EE27
:1010D00090169993FF80027F041215D612160712FC
:1010E00012F28E2D8F2E1215C9AE2DAF2E2290002A
:1010F00068E020E23FE490006FF0A3F090007EF003
:1011000090006AF0900067F0A3F0A3F090006BF0FD
:1011100090006DF0900084F0900068E04404F0903E
:101120000067E04402F0E4900077F0A3F0900085BF
:10113000F012150E228F23E4F524C3E524940874DD
:1011400080948050237F01121498C284E52330E7F5
:1011500004D2868002C2867F01121498D284E523CD
:1011600025E0F523052480D2C2857F01121483D2A5
:10117000857F01121483C28522C3900074E094829B
:10118000900073E09400402E900068E020E11B1274
:101190000FC0900068E04402F0900067E054FDF05A
:1011A000E4900077F0A3F012150E7FFF1211359036
:1011B0000068E054FBF022C0E0C0F0C083C082C0F1
:1011C000D075D000C000C001C002C003C004C0057B
:1011D000C006C007C2CF120B45D007D006D005D03D
:1011E00004D003D002D001D000D0D0D082D083D0A0
:1011F000F0D0E032AFB5EF30E203754201EF30E3FB
:1012000003754001EF30E103753E01EF30E40F7FDD
:10121000FFEFD394007480948040031F80F375B572
:1012200020E5426006E4F5427F01227F0022E4F5DA
:1012300021C3E5219408748094805019C3740795E4
:1012400021FF12159D1212F2C3EF9417EE94FC4089
:1012500004052180DCE52164087002FF22C37407C5
:101260009521FF2275B08875D28F75D30353F33F54
:1012700043F34075AA8843F338E55264016005439F
:10128000AA04800343AA0253AFF812122EEF42AF12
:10129000120D100212F285A72112159412158A124E
:1012A00015ED1215801215391215F11215F91215D6
:1012B000761213A412155312146D1215D01215F5CF
:1012C0008521A722E4F521F522C3E5229407748045
:1012D0009480501BAF22121EE4EF600FAF22A807CC
:1012E0007401088002C333D8FC4221052280DAAFA2
:1012F000212275B08853B0DF43B010E54A700675FF
:10130000CE0175B540E5B030E5FB85EE2F85ED30BB
:10131000E4F5B0E54A7003121546AE2FAF3022E473
:10132000900069F012152B120F24120D911215C1A5
:101330007F50121498E4FF1211357FC81214987F61
:10134000FF121135E4900077F0A3F022E4F5AA53E0
:10135000F3C043F3C053F3C743F318F5FEF5FDF5AF
:10136000D2F5D343AF1075B08853B0DF43B010E56A
:10137000B030E5FBE4F5B0228F278E268D258C2436
:1013800075AC14E54354F7F5AD0075AC188527AD81
:10139000008526AD008525AD008524AD0075AC1413
:1013A0008543AD2275AC0575AD28E5AC54806480ED
:1013B00060F875AC0875AD14E5AC5480648060F8D5
:1013C00075AC0475AD80E5AC5480648060F822E5AE
:1013D0004A701712155F53B6BFE5A930E7FB75B524
:1013E0008C43B6401211F40214D1AFB5EF30E2FADB
:1013F000121546E49000B6F022E4FF900084E0FE6F
:10140000E4FDEDC3940774809480500CEE30E0014D
:101410000FEEC313FE0D80EA228E228F23121438A2
:10142000AE22AF237C407D1012080EE47BE87A03E5
:10143000F9F812072902137875AC10E4F5AD00F540
:10144000AD00F5AD00F5AD001214F07F0412156B80
:10145000EF20E1F7221215C11215AF120E67120B21
:10146000E61215B81215E81215C1020FC0E5C854EE
:101470000453C8FB75CDBC75CC6A75CBBC75CA6A04
:1014800042C822AE07EED394007480948040087F57
:101490000F1214FF1E80EE22AD07EDD3940074806E
:1014A000948040087F641214831D80EE221214E1A0
:1014B000120ECDAF3AAE391214197F1C02151D124F
:1014C00014E1120ECDAF36AE351214197F1C021581
:1014D0001DAFA7E4F5A78541A9E5A930E7FB8FA7D4
:1014E0002275B520E4F544F542F540F53DF53E2280
:1014F000E5434402FD7F04EF4410F5AC8DAD22EFCF
:10150000D39400748094804004001F80F2229000E5
:101510006BE0547FF0E4900063F0A3F022EF54FC02
:101520004243E5434FFD7F040214F7C2977F0A123E
:101530001498D2977F0A02149875A5EC75F2EC7591
:10154000D50743D510221211F4EF60069000B6744F
:1015500001F022E4F5A9E5A95480648070F82285A1
:10156000A94175A914E5A930E7FB22EF4490F5AC39
:10157000000000AFAD2243B280E5B2544060FA22D1
:1015800075A47075F17075D48F2253DF7F75DC08F8
:10159000E4F5EC22E4F5A753D9BFF5D92253AFF80F
:1015A000EF540742AF225380705390FC0215C97B61
:1015B000807D807F34020E037B4A7D017F07020E0F
:1015C00003E4FBFD7F07020E0353F17053F2FC228C
:1015D0001217F20216C2EF5407F5AA221215A6023C
:1015E000134C1200030212647F0A02149875C9108A
:1015F0002275E3402275A8A02253FF772253D9BF5A
:10160000220214BF0214AD222222006FE001568193
:10161000026617049CC9056637070000086C90092C
:1016200048000A7FFD0B00080C00000D48BD1600A5
:10163000FF1780051800671916591A19E01B1300C7
:101640001C1800204800213FC7222000230300244B
:10165000050A250380265A5A2755AA28440229B884
:10166000002AFDB02B000F2C01002D0152070000B5
:1016700020180722830B0B800807013029B800349B
:10168000808023450029B0003480800100020307D8
:1016900008090707070707070702020202020202FA
:1016A000393939393939392D2D2D2D2D2D2D1F1F32
:1016B0001F1F1F1F1FE531B4010475470222754724
:1016C0000122E4F522E522C39532501EE4FDFCAF71
:1016D00022D1F6AF22121E52AF22D1ECAF22F17608
:1016E000AF22F130F1C5052280DB80C975F00EEF25
:1016F000121F10E4F0228F23E4FFEFC3953B501438
:1017000075F00EE523121F8AEF1207F9ECF0A3ED36
:10171000F00F80E675F00EE523121F10E4F0E523CC
:101720009016AE93FF75F00EE523121F72EFF022B4
:101730008F2375F00EEF121F10E0543FF075F00E7E
:10174000E523121EF9E4F0121F16E5239016A712E6
:101750001F78E52325E02455F8A60608A607121FE2
:1017600016E5239016A0121F78E52325E02463F8E0
:10177000A60608A60722121F01E0FCA3E0FD75F0F3
:101780000EEFF1F6ECF0A3EDF075F00EEF90000D1A
:101790001207F9E4F0A3F0E532C394045002800785
:1017A000E532C394085005751F80800AE532C39462
:1017B000105003751F40E532C394205004751F106C
:1017C00022751F0822E4F551F550F54FF54E75527C
:1017D0000122E4F522F521E521C395325011AF2114
:1017E000121EE4BF01057522018004052180E8AFC7
:0C17F0002222B1DCC10190000B0207F9BD
:10180000121546E54764036018E54764016012E578
:10181000476402600201A19000B6E0640160020129
:10182000A19000B6E024FFB39201E4F0E547640222
:101830006006E547640170431217D2EF702AE53461
:10184000B4012A0546E546AE457002054514C39528
:1018500038EE95374017754703E4F545F5461216FF
:10186000041215E211A28005E4F545F546E547B4FA
:10187000010930012C1213CFC20122E54764037025
:10188000821213CF11F1EF7002010312160112152B
:10189000DCE531600475470222754701E4F545F542
:1018A0004622E4F525F524F523F522F548F549F51A
:1018B00025F524F523F522F5211212F2E4FCFDE5CD
:1018C000252FFFE5243EFEED3523FDEC35228F2547
:1018D0008E248D23F5220521E521C3940440DAAF3F
:1018E00025AE24AD23AC2278021207BB8E488F4967
:1018F000221212F2E549254CFDE548354BFCD3EFA9
:101900009DEE9C40037F0122C3E549954CFDE548CF
:10191000954BFCC3EF9DEE9C7F0050027F0122E4BB
:101920007873F67873E6FFC39532501FB13378733E
:10193000E6FFB1E77873E6FF516E7873E6FF715703
:101940007873E6FF913978730680D8E4F553F5543F
:10195000F521E521C395325066E4FDAF21515E8E3D
:10196000228F23515AEF4E7004AE22AF23D3E523CA
:101970009FE5229E400CE5239FF525E5229EF52458
:10198000800BC3EF9523F525EE9522F524AD21AF0D
:1019900025AE24B18B7524008F25D3E525945AE517
:1019A000249400400AE525946EE5249400400CE55B
:1019B000252554F554E5243553F55305218093E44A
:1019C0007F07FEFDFCAB51AA50A94FA84E12069E00
:1019D000E47B08F184C004C005C006C007AE53AF65
:1019E00054E4FCFD78101207CEE47B08F184D003A8
:1019F000D002D001D0001206918F518E508D4F8CA5
:101A00004EE4FBFA7901F8AF51AE50AD4FAC4E1237
:101A10000729C006C007AF32AB077A00E4F9F8D057
:101A200007D0061207297871A60608A60718E6FE51
:101A300008E6FFC3940AEE9400500BE54D70047560
:101A4000520122154D22C3EF940FEE9400500775FA
:101A50004D0A75520222755203227D01AF2175F0A5
:101A60000EEFF18AED1207F9E0FEA3E0FF228F21CD
:101A7000E4FD515E9000AEEEF0A3EFF0515A9000FD
:101A8000B0F1527002A3E0700F9000AEE0FFA3E04F
:101A90009000B0CFF0A3EFF0AF21B17C9000B2F195
:101AA00052FEA3E0FFD3F1674021F14AFF9000B15D
:101AB000E02FFD9000B0E03EFCD3F15C400D9000C3
:101AC000B1E02FFF9000B0E03EF1429000B0E0FEA8
:101AD000A3E0FFC3F1675023F14AFFC39000B1E0D8
:101AE0009FFD9000B0E09EFCC3F15C500EC39000DF
:101AF000B1E09FFF9000B0E09EF142E49000B0F0B2
:101B0000A3F0AF1FAB07FAF9F875F00EE521121735
:101B1000F61207E1120729F12CE51F24FFFFE43438
:101B2000FFFEE4FCFD12069EC004C005C006C0070F
:101B3000AF1FAB07E4FAF9F89000AE1207E1120705
:101B400029D003D002D001D00012069175F00EE525
:101B5000211217F60207ED8F21EF25E02455F8E654
:101B6000F52408E6F525EF25E02463F8E6F52208DC
:101B7000E6F523E4FDFCB1B98E268F27F10BE05486
:101B8000807028C3E5279523E52695225004AF21D0
:101B9000A128D3E5279523E52695224035AF21914D
:101BA00002EF602EF10BE04480F022D3E52795256B
:101BB000E52695244004AF21A11DC3E5279525E521
:101BC000269524500DAF2171D3EF6006F10BE05440
:101BD0007FF022D1F3E0FF540FFD640F60010DD1BF
:101BE000F5EF54F0F0D1F5E04DF0ED640F6007B182
:101BF00012EDC39F4009D1F5E054F0F07F01227F40
:101C00000022D1F3E0FFC4540FFD640F60010DD139
:101C1000F5EF540FF0D1F5E0FFEDC454F0FCEF4CBC
:101C2000F0ED640F6007B112EDC39F4009D1F5E0FC
:101C3000540FF07F01227F0022D1FFE0F522A3E0C4
:101C4000F523B16DEF6002A111E552640175F00E4C
:101C50006007E52190000B8005E521900001120747
:101C6000F9E0F524A3E0F525D3E5259523E52495B2
:101C7000224007F135240AF08010C3E5259523E5BD
:101C80002495225005F13524F6F0F135FFD3648018
:101C900094E4401075F00EE521F105E475F00112B1
:101CA00006048060C3EF6480941C5065E5526401B3
:101CB0007040E5219016AE93C313FF75F00EE52139
:101CC000F105E0FCA3E0C39FFFEC9400FE75F00E6D
:101CD000E5211217F6E0FCA3E0FDC39FEC9E75F032
:101CE0000EE52190000550121207F9ECF0A3EDF07B
:101CF000801275F00EE5219000051207F974FFF5CA
:101D0000F012060475F00EE52190000A1207F9E4BE
:101D1000F022E5526401AF3360027F0F2275F00EAE
:101D2000EFD1F9E054F0F02275F00EEFD1F9E05464
:101D30000FF0228F211210A5AD07AC06AF218C2D1C
:101D40008D2EEF75F00EA42401F9740035F0FA7BA6
:101D5000019000AE12080512061AFF900002E5F08D
:101D60008FF0120664E52D852EF002064575F00E03
:101D7000EFF110E07F0030E6027F012275F00EEFF8
:101D8000F172E075F010A4FFAEF0228E268F27AF1F
:101D900005B17CEE3395E0FDFCC004F12EAE26AF1C
:101DA000277C007D6412080ED000120729D3EF941F
:101DB000FFEE940040027FFF22AB07D137C3EF9DB7
:101DC000F529EE9CF52875F00EEBF105E0FEA3E099
:101DD000FFD3E5299FE5289E4009E5299FFFE528D7
:101DE0009EFE22E4FEFF22D1FFE0FEA3E0FDAC0652
:101DF00075F00EEFF172E075F008A4AEF02DF5234A
:101E0000EE3CF522C3E5239DE5229C5005F10BE451
:101E1000F022AF21D137D3EF9523EE952275F00E46
:101E2000E52190000840081207F9E04440F0221232
:101E300007F9E054BFF022E55275F00EB40106EF49
:101E40009000018004EF90000B1207F9E0FEA3E080
:101E5000FF228F23E4F525F526F52AF529F528F547
:101E600027121608E4F52AF529F528F52775F00E4E
:101E7000E523F105E4F0A3F0F525F526AF231210D4
:101E8000A5E4FCFDE52A2FFFE5293EFEED3528FD02
:101E9000EC35278F2A8E298D28F5270526E5267013
:101EA000020525C39408E525940040D0AF2AAE2949
:101EB000AD28AC2778031207BB8E2B8F2C75F00E44
:101EC000E523F105E52BF0A3E52CF0E4F524E5246A
:101ED000C3953B500CAD2CAC2BAF23B13E052480F9
:101EE000ED02160975F00EEFF110E07F0030E70209
:101EF0007F0122AE0775F00EEE9000090207F98F00
:101F00002175F00EEF9000050207F975F00EE5213E
:101F10009000080207F975F00EE5239000071207FC
:101F2000F9E0FF7E007C007D1012080EA804A905D0
:101F3000AA06AB072275F00EE52190000A1207F9F8
:101F4000E0229000AEF0A3EFF0229000B2E0FEA3FA
:101F5000E022EEF0A3EFF09000B0E0229000AFE0BE
:101F60009D9000AEE09C229000AFE09F9000AEE01C
:101F70009E229000070207F993FFE4FCFDFE120683
:101F80009EE47B64FAF9F80207299000011207F930
:041F900075F00222C4
:00000001FF
