:020000040000FA
:10000000020CA843F18F43A48F53807053A4704314
:10001000808F53F17043F20343A5035390FC53A523
:10002000FC43900353F2FC228FAB220211D0121139
:100030000312118E2000030201E890006AE04404DC
:10004000F0900067E054FDF0E4900077F0A3F090AA
:100050000068E054FDF0E490007CF012131390006F
:1000600085EFF0900069E020E70AE04480F0121587
:100070004D120F39900083E0FF900085E0FE6F7015
:100080000302011390006CEFF0900083EEF09000FB
:1000900069E020E005EE64086020900067E054F716
:1000A000F0E490006FF0A3F090007EF090006AE022
:1000B00054FDF0900069E054FEF0E4900071F0A36C
:1000C000F0900069E020E61890008AE004F07006E5
:1000D000900089E004F07FFF12114AE490006BF079
:1000E000900069E054F7F090006E7401F012141B58
:1000F000900087EFF0C39402748094804003020163
:10010000AF90006AE020E4030201AFE490006EF0DB
:100110000201AF90006AE020E4030201A9900069A7
:10012000E020E30790006DE030E30890006E74017A
:10013000F08042E490006EF0D3900072E0945D9005
:100140000071E09402400A7FFF12114A1215F280FA
:1001500024D3900072E09444900071E09402401522
:100160007F2412114A900068E0547FF0A3E054F716
:10017000F0E054BFF0900067E030E733C3900066D2
:10018000E0943A900065E094004024900067E054C9
:100190007FF0E4900065F0A3F090006AE054EFF087
:1001A000900069E054BFF0800690006E7401F090FA
:1001B0000067E054BFF0E4900086F0900069E054DE
:1001C000FBF0900067E020E00EE4900071F0A3F0F7
:1001D000900067E04401F090006EE0700302053982
:1001E000E4F012084C020539E490006CF0A3E054EE
:1001F000FDF090006AE030E436E4900077F0A3F080
:10020000900067E020E70BE04480F0E4900065F0A8
:10021000A3F0900069E030E616D3900072E09414E9
:10022000900071E094004007900069E054BFF090A6
:100230000067E030E72BC3900066E09414900065FF
:10024000E09400401C900067E0547FF0E49000656B
:10025000F0A3F090006AE054EFF0900069E054BF22
:10026000F090006AE054F7F0A3E054F7F0E4900057
:1002700085F0900083F0900067E054FEF090006BF2
:10028000E030E717C3900064E0943A900063E09494
:100290000040087FFF12114A12153090006BE020D9
:1002A000E7057FFF12114A900068E0547FF090004C
:1002B0006AE054FDF0E030E011E054FEF090007E82
:1002C000E004F090006DE054F7F0C3900070E0940B
:1002D0002C90006FE094014020900067E054F7F00C
:1002E000E490006FF0A3F090007EF090006AE0547C
:1002F000FDF0900069E054FEF090007EE0D394029F
:1003000074809480406890006FE0FEA3E0FFD39477
:1003100000EE94004058EF942CEE94015050900061
:1003200069E020E01790008AE004F07006900089F0
:10033000E004F090006FE4F0A374E0F0900069E056
:100340004401F0900068E054F7F0A3E054FBF09013
:100350000070E030E007900068E04480F09000A377
:100360007403F0A3744DF0E4900071F0A3F09000DA
:1003700069E030E34AE054F7F0E054BFF0E054DFC6
:10038000F0E4900077F0A3F0900068E020E7309070
:100390000071E0FEA3E0FFD39400EE94004020EF54
:1003A0009428EE9400501890007AEFF0E4900071D9
:1003B000F0A3F0900067E04404F0A3E04401F09063
:1003C0000067E030E24C90007AE0FF7E00C39428A2
:1003D00074809480503CE4900065F0A3F090006835
:1003E000E030E02EE4900077F0A3F0C3EF941E74A9
:1003F000809480400C900068E054FBF07FFF121165
:100400004A90006DE04408F0900068E054FEF0125D
:10041000147790007AE0C3943A74809480401A90E4
:100420000067E054FBF0E490007AF0900068E0543C
:10043000FEF0E4900077F0A3F0900069E020E32460
:10044000E030E620900068E04480F0900067E044EF
:1004500040F0900069E054BFF0E4900086F0900016
:1004600077F0A3F0900069E030E21FE054BFF0E0C5
:1004700054FBF0900068E04480F0900067E0444056
:10048000F0900071A3E0900086F0900067E030E605
:1004900063900086E0C3943274809480505690003C
:1004A00001E0FEA3E0FF1210651210237C007D0A1C
:1004B0001205DF900082EDF0E02404F090007CE073
:1004C000FF900086E0FED39F402AEE9FFF900082BF
:1004D000E0FEEFC39E401D900086E090007CF0900F
:1004E0000068E04480F0E4900077F0A3F090006DA5
:1004F000E054F7F0900086E0C3943274809480401A
:10050000387FFF12114A900067E054BFF0E490007A
:1005100086F0900068E0547FF0900067E054F7F0B8
:10052000E490006FF0A3F090007EF090006AE05439
:10053000FDF0900069E054FEF0900069E020E729AA
:10054000D3900078E09482900077E09400401A9075
:100550000069E04480F012154D120F391215E312B4
:100560000FD5E4900077F0A3F0900068E030E70743
:10057000E0547FF012147722EF8DF0A4A8F0CF8C16
:10058000F0A428CE8DF0A42EFE22BC000BBE0029C4
:10059000EF8DF084FFADF022E4CCF875F008EF2F7A
:1005A000FFEE33FEEC33FCEE9DEC984005FCEE9D37
:1005B000FE0FD5F0E9E4CEFD22EDF8F5F0EE842053
:1005C000D21CFEADF075F008EF2FFFED33FD4007B4
:1005D000985006D5F0F222C398FD0FD5F0EA22C25A
:1005E000D5EC30E709B2D5E4C39DFDE49CFCEE30C8
:1005F000E715B2D5E4C39FFFE49EFE12058AC3E46B
:100600009DFDE49CFC800312058A30D507C3E49F5E
:10061000FFE49EFE22C5F0F8A3E028F0C5F0F8E55F
:1006200082158270021583E038F022BB010A8982AC
:100630008A83E0F5F0A3E022500687F009E719224B
:10064000BBFE07E3F5F009E3192289828A83E4936C
:10065000F5F074019322BB010A89828A83F0E5F0E8
:10066000A3F0225006F709A7F01922BBFE06F3E516
:10067000F009F31922F8BB0111E58229F582E5831F
:100680003AF583E8F0E5F0A3F0225009E92582C8A5
:10069000F608A6F022BBFE09E92582C8F2E5F008BB
:1006A000F222EF2BFFEE3AFEED39FDEC38FC22E8AA
:1006B0008FF0A4CC8BF0A42CFCE98EF0A42CFC8A47
:1006C000F0EDA42CFCEA8EF0A4CDA8F08BF0A42DC4
:1006D000CC3825F0FDE98FF0A42CCD35F0FCEB8E65
:1006E000F0A4FEA9F0EB8FF0A4CFC5F02ECD39FE1B
:1006F000E43CFCEAA42DCE35F0FDE43CFC2275F090
:1007000008758200EF2FFFEE33FECD33CDCC33CC16
:10071000C58233C5829BED9AEC99E58298400CF531
:1007200082EE9BFEED9AFDEC99FC0FD5F0D6E4CE5F
:10073000FBE4CDFAE4CCF9A88222B800C1B9005993
:10074000BA002DEC8BF084CFCECDFCE5F0CBF97860
:1007500018EF2FFFEE33FEED33FDEC33FCEB33FBF4
:1007600010D703994004EB99FB0FD8E5E4F9FA227E
:100770007818EF2FFFEE33FEED33FDEC33FCC93379
:10078000C910D7059BE99A4007EC9BFCE99AF90F41
:10079000D8E0E4C9FAE4CCFB2275F010EF2FFFEEAD
:1007A00033FEED33FDCC33CCC833C810D7079BECF8
:1007B0009AE899400AED9BFDEC9AFCE899F80FD570
:1007C000F0DAE4CDFBE4CCFAE4C8F922E8600FECFF
:1007D000C313FCED13FDEE13FEEF13FFD8F122E877
:1007E000600FEFC333FFEE33FEED33FDEC33FCD887
:1007F000F122E0FCA3E0FDA3E0FEA3E0FF22ECF089
:10080000A3EDF0A3EEF0A3EFF022A42582F582E59C
:10081000F03583F58322EBF0A3EAF0A3E9F022ECB4
:100820008EF0A4CCC5F0CCCDF8EFA4CEC5F02DFD54
:10083000E43CFCE8A42EC8C5F03DFDE43CFCEFA47C
:10084000FFE5F028FEE43DFDE43CFC22900085E05D
:1008500024FE602E24FE603D24FC604C24F8605B86
:1008600024F0606A24E06078243F60030208F2907C
:10087000007B74DFF09000A37403F0A37490F00287
:10088000095D90007B74EFF09000A37403F0A374F3
:1008900039F002095D90007B74BFF09000A37403EF
:1008A000F0A3745AF002095D90007B747FF0900011
:1008B000A37403F0A37437F002095D90007B74FD0C
:1008C000F09000A37403F0A37450F002095D90004F
:1008D0007B74FBF09000A37403F0A3743BF0807D65
:1008E00090007B74F7F09000A37403F0A3743FF0C2
:1008F000806BC3900072E0943A900071E0940050D5
:100900004712141B900087EFF0C394037480948007
:1009100040367F7F12114A900068E04480F09000DA
:10092000A37403F0A37437F0900069E04408F0E08A
:100930004440F090006DE054F7F090006BE044808C
:10094000F0E4900063F0A3F090006AE04410F090AF
:100950000067E04480F0E4900065F0A3F09000713F
:10096000E0FEA3E0FFC3943AEE9400507890006A52
:10097000E030E403020A46900081E0FDC3EF9DEE03
:1009800094005003020A4690006BE020E31AE04412
:1009900008F090007BE0FF12114A90006BE0448069
:1009A000F0E4900063F0A3F0900069E04404F0905C
:1009B0000085E064087025900067E020E30FE044C4
:1009C00008F0E490007EF090006FF0A3F090006AD1
:1009D000E020E108E04402F0E04401F0900068E02B
:1009E0004480F08061D3900072E0945D900071E0EB
:1009F0009402400A7FFF12114A1215F28048D390E8
:100A00000072E09444900071E094024015900069F7
:100A1000E054FBF0900068E0547FF07F2412114A0C
:100A20008024900069E054FBF0900068E0547FF06F
:100A300090006BE054F7F0900069E020E6087FFF3B
:100A400012114A1215309000817403F022C1004245
:100A500000A900004200AB00004200AD00004100D0
:100A6000B700013F00013C00013207013B020133A6
:100A700001023500080239007D023700960131017C
:100A80000134014100A7004100880041008B004172
:100A900000A8004100A200130800000000000000B0
:100AA0000000000000000000000000004100A10064
:100AB00055008C0000000000000000000000000055
:100AC000000000000000000042008900004200A376
:100AD000000041007F00410085004100830041008B
:100AE000750041006C004100870042007700004221
:100AF000006F000042007100004100760041007E5E
:100B0000004100860041007C004100800041007BE4
:100B10000041007D0041007A004100797E41008261
:100B20000041008100410067004100680041006908
:100B30000041006A0041006B0041006D00410084EB
:100B40000041006E01420065000042006300004267
:100B500000730000014A0002480000024B0096C1E9
:100B60000102450000015201014D0000900067E0C4
:100B700030E00E900072E004F07006900071E00426
:100B8000F0900067E030E10E900078E004F070062D
:100B9000900077E004F0900067E030E30E90007082
:100BA000E004F0700690006FE004F0900067E03021
:100BB000E21690007AE004F0E075F00A84E5F07047
:100BC00007900068E04401F0900067E030E606908E
:100BD0000086E004F0900067E030E70E900066E0E9
:100BE00004F07006900065E004F090006BE030E7E0
:100BF0000E900064E004F07006900063E004F09052
:100C0000006DE030E006900076E004F02290008C69
:100C10007432F0A37413F0752102E4F522C3E522C7
:100C2000941374809480501A74082522F8E6FF7497
:100C30008C2521F582E43400F583EFF005210522AF
:100C400080DB7F011214BAC295C293E4F521C3E59B
:100C5000219415748094805048748C2521F582E489
:100C60003400F583E09000A1F0E4F522C3E522947E
:100C7000087480948050269000A1E030E704D2965A
:100C80008002C2967F031214A5D2957F031214A589
:100C9000C2959000A1E025E0F0052280CF052180DB
:100CA000ADD2937F020214A5121623787FE4F6D802
:100CB000FD758173020CF2021070E493A3F8E493C3
:100CC000A34003F68001F208DFF48029E493A3F83F
:100CD0005407240CC8C333C4540F4420C8834004B1
:100CE000F456800146F6DFE4800B01020408102070
:100CF0004080900A4DE47E019360BCA3FF543F30D6
:100D0000E509541FFEE493A360010ECF54C025E013
:100D100060A840B8E493A3FAE493A3F8E493A3C8CB
:100D2000C582C8CAC583CAF0A3C8C582C8CAC5835C
:100D3000CADFE9DEE780BE754B00754CFFE4FFEFCC
:100D4000C3940774809480501DEF9016D493FEC313
:100D5000954CE4954B500CEF9016B893FBEE754B09
:100D600000F54C0F80D9EF9016D49375F004A4854C
:100D7000F04BF54CE5AF5407FFEBD39F4017AE4B5C
:100D8000AF4C7C007D501205787D6412058A8E4B35
:100D90008F4C1B80DFD3E54C9490E54B94014006CB
:100DA000754B01754C90C3E54C943CE54B94005059
:100DB00006754B00754C3C22F583E493FB8F238D25
:100DC000248B257F011214BAC295C293E4F528AF93
:100DD00028C3EF940374809480503FAF2874232F6E
:100DE000F8E6F526E4F527AF27C3EF94087480945E
:100DF000805023E52630E704D2968002C2967F0316
:100E00001214A5D2957F031214A5C295E52625E0FC
:100E1000F526052780D1052880B5D2937F020214DC
:100E2000A5901FFDE493FFF47023901FFC93F470D2
:100E30001C901FFB93F47015901FFA93F4700E75BD
:100E40000855750901750A01750B3280138F0890DA
:100E50001FFAE493F509A3E493F50AA3E493F50BD1
:100E6000751113900089E0FCA3E0FDECF5128D13E1
:100E70009000A3E0F516A3E0F517E4F518751957EF
:100E8000900085E0F51A22E4F521F52220A7527F93
:100E9000141214BA20A7177F141214BA0522E522DF
:100EA00070020521C3942CE521940140E722120F22
:100EB00087E490007DF090007DE0C39404748094FA
:100EC00080501CE4FF12114A7F641214BA7FFF1293
:100ED000114A7F641214BA90007DE004F080D7803C
:100EE000FE2285A922E53C704FAFAEEF700675AECD
:100EF000A575AEF17D087F051215197D077F0612D5
:100F000015197D807F0412151975A9747DC07F04A1
:100F10001215197F327E00EF1F70011EEF4E70F721
:100F20007DC07F0412151975B5208522A9E5A93069
:100F3000E7FB7543C0753C0122E49000A2F09000ED
:100F4000A2E0FEC3942174809480503AE0FD75F0D5
:100F500003A42430F582E43416F583E493FFED75A1
:100F6000F003A42431F582E43416F583E493FDEE16
:100F700075F003A42432F582E43416120DB8900003
:100F8000A2E004F080B822E49000A2F09000A2E079
:100F9000FEC3940574809480503AE0FD75F003A47C
:100FA0002493F582E43416F583E493FFED75F003A2
:100FB000A42494F582E43416F583E493FDEE75F0F1
:100FC00003A42495F582E43416120DB89000A2E033
:100FD00004F080B822E49000A2F09000A2E0FEC3EA
:100FE000940174809480503AE0FD75F003A424A825
:100FF000F582E43416F583E493FFED75F003A42441
:10100000A9F582E43416F583E493FDEE75F003A4AC
:1010100024AAF582E43416120DB89000A2E004F080
:1010200080B822AC1BAD1CAE1DAF1E7810EC4D4E2F
:101030004F70047CA57DA5C3EC13FCED13FDEE13EE
:10104000FEEF13FF5010EC64CCFCED644CFDEE643D
:101050004EFEEF64CEFFD8DF8C1B8D1C8E1D8F1EC5
:10106000EE547FFE228E1B8F1C74A5F51DF51E22EB
:101070001212E243A680D2A7D2CA12127DC2CA12AD
:10108000180012194C120B6CD2CA1218A1EF600B87
:10109000D200E4900073F0A3F08010C200900074BE
:1010A000E004F07006900073E004F012002EC2CA53
:1010B000C2CF75CDBC75CC6A80C5AE07EE9016B1B7
:1010C00093FF120028EE9016B893FF1215BF75F02B
:1010D0000EEEA42405F582E5F03400F583E0FCA3D0
:1010E000E04C6008EE9016BF93FF80027F0412155B
:1010F000F812162D1213418E2D8F2E1215EBAE2DD8
:10110000AF2E22900068E020E23FE490006FF0A351
:10111000F090007EF090006AF0900067F0A3F0A3DA
:10112000F090006BF090006DF0900085F0900068FA
:10113000E04404F0900067E04402F0E4900077F0AF
:10114000A3F0900086F0121530228F23E4F524C31B
:10115000E52494087480948050237F011214BAC24D
:1011600084E52330E704D2868002C2867F01121410
:10117000BAD284E52325E0F523052480D2C2857FF9
:10118000011214A5D2857F011214A5C28522C39035
:101190000074E09482900073E09400403290006804
:1011A000E020E11F120FD5900068E04402F09000AB
:1011B00067E054FDF0E4900077F0A3F0900081F038
:1011C0001215307FFF12114A900068E054FBF022A4
:1011D000C0E0C0F0C083C082C0D075D000C000C0E5
:1011E00001C002C003C004C005C006C007C2CF12C0
:1011F0000B6CD007D006D005D004D003D002D001AC
:10120000D000D0D0D082D083D0F0D0E032AFB5EFD4
:1012100030E203754201EF30E303754001EF30E146
:1012200003753E01EF30E40F7FFFEFD3940074802D
:10123000948040031F80F375B520E5426006E4F515
:10124000427F01227F0022E4F521C3E52194087446
:101250008094805019C374079521FF1215BF121393
:1012600041C3EF9417EE94FC4004052180DCE52196
:1012700064087002FF22C374079521FF22E49000E6
:1012800069F012154D120F39120E871215E37F50B7
:101290001214BAE4FF12114A7FC81214BA7FFF1267
:1012A000114AE4900077F0A3F09000817403F022DB
:1012B00075B08875D28F75D30353F33F43F34075F0
:1012C000AA8843F338E5526401600543AA04800309
:1012D00043AA0253AFF8121247EF42AF120D370282
:1012E000134185A7211215B61215AC12160F12154F
:1012F000A212155B12161312161B12161F12159846
:101300001213C612157512148F1215F212161785C4
:1013100021A722E4F521F522C3E5229407748094E5
:1013200080501BAF221218C0EF600FAF22A80774C5
:1013300001088002C333D8FC4221052280DAAF21A4
:101340002275B08853B0DF43B010E54A700675CE01
:101350000175B540E5B030E5FB85EE2F85ED30E455
:10136000F5B0E54A7003121568AE2FAF3022E4F5F0
:10137000AA53F3C043F3C053F3C743F318F5FEF584
:10138000FDF5D2F5D343AF1075B08853B0DF43B04D
:1013900010E5B030E5FBE4F5B0228F278E268D25D1
:1013A0008C2475AC14E54354F7F5AD0075AC188585
:1013B00027AD008526AD008525AD008524AD0075DF
:1013C000AC148543AD2275AC0575AD28E5AC5480F1
:1013D000648060F875AC0875AD14E5AC5480648029
:1013E00060F875AC0475AD80E5AC5480648060F83D
:1013F00022E54A701712158153B6BFE5A930E7FB05
:1014000075B58C43B64012120D0214F3AFB5EF3030
:10141000E2FA121568E49000B7F022E4FF9000852C
:10142000E0FEE4FDEDC3940774809480500CEE3030
:10143000E0010FEEC313FE0D80EA228E228F2312ED
:10144000145AAE22AF237C407D1012081FE47BE8C3
:101450007A03F9F812073A02139A75AC10E4F5AD65
:1014600000F5AD00F5AD00F5AD001215127F0412C8
:10147000158DEF20E1F7221215E31215D1120E217E
:10148000120C0D1215DA12160A1215E3020FD5E529
:10149000C8540453C8FB75CDBC75CC6A75CBBC75FC
:1014A000CA6A42C822AE07EED3940074809480408A
:1014B000087F0F1215211E80EE22AD07EDD3940098
:1014C0007480948040087F641214A51D80EE22125F
:1014D0001503120EE2AF3AAE3912143B7F1C02150F
:1014E0003F121503120EE2AF36AE3512143B7F1CCD
:1014F00002153FAFA7E4F5A78541A9E5A930E7FBB1
:101500008FA72275B520E4F544F542F540F53DF589
:101510003E22E5434402FD7F04EF4410F5AC8DAD5F
:1015200022EFD39400748094804004001F80F22244
:1015300090006BE0547FF0E4900063F0A3F022EFA2
:1015400054FC4243E5434FFD7F04021519C2977FC7
:101550000A1214BAD2977F0A0214BA75A5EC75F272
:10156000EC75D50743D5102212120DEF60069000DE
:10157000B77401F022E4F5A9E5A95480648070F8FD
:101580002285A94175A914E5A930E7FB22EF449013
:10159000F5AC000000AFAD2243B280E5B25440602C
:1015A000FA2275A47075F17075D48F2253DF7F75A0
:1015B000DC08E4F5EC22E4F5A753D9BFF5D92253B2
:1015C000AFF8EF540742AF225380705390FC0215DE
:1015D000EB7B807D807F34020DBD7B4A7D017F07E0
:1015E000020DBDE4FBFD7F07020DBD53F17053F208
:1015F000FC221217F90216E8EF5407F5AA22121579
:10160000C802136E1200030212B07F0A0214BA75E8
:10161000C9102275E3402275A8A02253FFF7227556
:10162000EF022253D9BF220214E10214CF22222258
:10163000006FE0015681026617049CC905663707F2
:101640000000086C900948000A7FFD0B00080C00A0
:10165000000D48BD1600FF178005180067191659C0
:101660001A19E01B13001C1800204800213FC72254
:10167000200023030024050A250380265A5A2755F3
:10168000AA28440229B8002AFDB02B000F2C010023
:101690002D015207000020180722830B0B8008073A
:1016A000013029B80034808023450029B0003480FF
:1016B0008001000203070809070707070707070259
:1016C000020202020202393939393939392D2D2DF8
:1016D0002D2D2D2D1F1F1F1F1F1F1FE531B40104AE
:1016E0007547022275470122E4F522E522C39532AF
:1016F000501EE4FDFCAF22F11CAF22121E7CAF2273
:10170000F112AF22F1A9AF22F156F19C052280DB44
:1017100080C975F00EEF121F2BE4F0228F23E4FF37
:10172000EFC3953B501475F00EE523121FABEF127B
:10173000080AECF0A3EDF00F80E675F00EE5231239
:101740001F2BE4F0E5239016D493FF75F00EE523EC
:10175000121F93EFF0228F2375F00EEF121F2BE074
:10176000543FF075F00EE523121F14E4F0121F74BD
:10177000E5239016CD121F99E52325E02455F8A600
:101780000608A607121F74E5239016C6121F99E5D6
:101790002325E02463F8A60608A60722E4F551F500
:1017A00050F54FF54E75520122121F1CE0FCA3E0CC
:1017B000FD75F00EEF121F31ECF0A3EDF075F00E99
:1017C000EF90000D12080AE4F0A3F0E532C3940490
:1017D00050028007E532C394085005751F80800AC7
:1017E000E532C394105003751F40E532C394205076
:0D17F00004751F1022751F0822B1FEC127CD
:10180000121568E54764036018E54764016012E556
:10181000476402600201A09000B7E0640160020129
:10182000A09000B7E024FFB39201E4F0E547640222
:101830006006E5476401704211A1EF702AE534B4F7
:10184000012A0546E546AE457002054514C39538A4
:10185000EE95374017754703E4F545F54612162A0D
:1018600012160411FD8005E4F545F546E547B4017F
:101870000930012C1213F1C20122E5476403708381
:101880001213F111CFEF700201031216271215FE89
:10189000E531600475470222754701E4F545F546D8
:1018A00022E4F522F521E521C395325010AF211134
:1018B000C0BF01057522018004052180E9AF222205
:1018C00075F00EEFF12BE07F0030E7027F0122126E
:1018D0001341E549254CFDE548354BFCD3EF9DEE22
:1018E0009C40037F0122C3E549954CFDE548954B9B
:1018F000FCC3EF9DEE9C7F0050027F0122E4F525A2
:10190000F524F523F522F548F549F525F524F523C9
:10191000F522F521121341E4FCFDE5252FFFE52416
:101920003EFEED3523FDEC35228F258E248D23F5EB
:10193000220521E521C3940440DAAF25AE24AD236E
:10194000AC2278021207CC8E488F4922E47873F6D5
:101950007873E6FFC39532501FB15D7873E6FFD10F
:10196000117873E6FF519B7873E6FF71827873E616
:10197000FF916478730680D8E4F553F554F521E5BA
:1019800021C395325066E4FDAF21518B8E228F2307
:101990005187EF4E7004AE22AF23D3E5239FE5229B
:1019A0009E400CE5239FF525E5229EF524800BC380
:1019B000EF9523F525EE9522F524AD21AF25AE2434
:1019C000B1B57524008F25D3E525945AE5249400FC
:1019D000400AE525946EE5249400400CE525255445
:1019E000F554E5243553F55305218093E47F07FE34
:1019F000FDFCAB51AA50A94FA84E1206AFE47B08DC
:101A0000F1A5C004C005C006C007AE53AF54E4FC46
:101A1000FD78101207DFE47B08F1A5D003D002D0D7
:101A200001D0001206A28F518E508D4F8C4EE4FBD8
:101A3000FA7901F8AF51AE50AD4FAC4E12073AC033
:101A400006C007AF32AB077A00E4F9F8D007D0063A
:101A500012073A7871A60608A60718E6FE08E6FF00
:101A6000C3940AEE9400500BE54D700475520122A8
:101A7000154D22C3EF940FEE94005007754D0A7573
:101A8000520222755203227D01AF2175F00EEFF153
:101A9000ABED12080AE0FEA3E0FF228F21E4FD5126
:101AA0008B9000AFEEF0A3EFF051879000B1F154AE
:101AB0007002A3E0700F9000AFE0FFA3E09000B1D0
:101AC000CFF0A3EFF0AF21B1A69000B3F154FEA385
:101AD000E0FFD3F1694021F14CFF9000B2E02FFD0F
:101AE0009000B1E03EFCD3F15E400D9000B2E02FDB
:101AF000FF9000B1E03EF1449000B1E0FEA3E0FFB2
:101B0000C3F1695023F14CFFC39000B2E09FFD90F8
:101B100000B1E09EFCC3F15E500EC39000B2E09FA6
:101B2000FF9000B1E09EF144E49000B1F0A3F0AF6B
:101B30001FAB07FAF9F875F00EE521F1311207F243
:101B400012073AF18AE51F24FFFFE434FFFEE4FCAC
:101B5000FD1206AFC004C005C006C007AF1FAB072B
:101B6000E4FAF9F89000AF1207F212073AD003D066
:101B700002D001D0001206A275F00EE521F131026B
:101B800007FE8F21EF25E02455F8E6F52408E6F559
:101B900025EF25E02463F8E6F52208E6F523E4FDC9
:101BA000FCB1E38E268F27F126E054807028C3E530
:101BB000279523E52695225004AF21A152D3E5278E
:101BC0009523E52695224035AF21912DEF602EF12A
:101BD00026E04480F022D3E5279525E5269524408C
:101BE00004AF21A147C3E5279525E5269524500D8F
:101BF000AF2171FEEF6006F126E0547FF022F10E76
:101C0000E0FF540FFD640F60010DF110EF54F0F090
:101C1000F110E04DF0ED640F6007B13CEDC39F4063
:101C200009F110E054F0F07F01227F0022F10EE074
:101C3000FFC4540FFD640F60010DF110EF540FF05D
:101C4000F110E0FFEDC454F0FCEF4CF0ED640F60D8
:101C500007B13CEDC39F4009F110E0540FF07F0144
:101C6000227F0022F11AE0F522A3E0F523B197EFDD
:101C70006002A13BE552640175F00E6007E521901A
:101C8000000B8005E52190000112080AE0F524A36D
:101C9000E0F525D3E5259523E52495224007F13786
:101CA000240AF08010C3E5259523E52495225005EC
:101CB000F13724F6F0F137FFD3648094E4401075D7
:101CC000F00EE521F120E475F001120615805FC3E6
:101CD000EF6480941C5064E5526401703FE52190EC
:101CE00016D493C313FF75F00EE521F120E0FCA399
:101CF000E0C39FFFEC9400FE75F00EE521F131E0AA
:101D0000FCA3E0FDC39FEC9E75F00EE5219000055D
:101D1000501212080AECF0A3EDF0801275F00EE5F7
:101D20002190000512080A74FFF5F012061575F0EF
:101D30000EE52190000A12080AE4F022E55264013F
:101D4000AF3360027F0F2275F00EEFF114E054F014
:101D5000F02275F00EEFF114E0540FF0228F2112F3
:101D600010BAAD07AC06AF218C2D8D2EEF75F00E9D
:101D7000A42401F9740035F0FA7B019000AF120839
:101D80001612062BFF900002E5F08FF0120675E5A3
:101D90002D852EF002065675F00EEFF12BE07F0038
:101DA00030E6027F012275F00EEFF193E075F0103E
:101DB000A4FFAEF0228E268F27AF05B1A6EE339595
:101DC000E0FDFCC004F18CAE26AF277C007D6412E0
:101DD000081FD00012073AD3EF94FFEE94004002A0
:101DE0007FFF22AB07D161C3EF9DF529EE9CF5285B
:101DF00075F00EEBF120E0FEA3E0FFD3E5299FE5AF
:101E0000289E4009E5299FFFE5289EFE22E4FEFF6B
:101E100022F11AE0FEA3E0FDAC0675F00EEFF1939F
:101E2000E075F008A4AEF02DF523EE3CF522C3E5F5
:101E3000239DE5229C5005F126E4F022AF21D161DB
:101E4000D3EF9523EE952275F00EE5219000084022
:101E50000812080AE04440F02212080AE054BFF0D9
:101E600022E55275F00EB40106EF9000018004EFF8
:101E700090000B12080AE0FEA3E0FF228F23E4F596
:101E800025F526F52AF529F528F52712162EE4F56D
:101E90002AF529F528F52775F00EE523F120E4F061
:101EA000A3F0F525F526AF231210BAE4FCFDE52AD0
:101EB0002FFFE5293EFEED3528FDEC35278F2A8ED4
:101EC000298D28F5270526E52670020525C39408E7
:101ED000E525940040D0AF2AAE29AD28AC27780381
:101EE0001207CC8E2B8F2C75F00EE523F120E52BFD
:101EF000F0A3E52CF0E4F524E524C3953B500CADAC
:101F00002CAC2BAF23B168052480ED02162FAE0751
:101F100075F00EEE90000902080A8F2175F00EEFA1
:101F200090000502080A75F00EE5219000080208ED
:101F30000A90000B02080A75F00EE52190000A12C3
:101F4000080AE0229000AFF0A3EFF0229000B3E087
:101F5000FEA3E022EEF0A3EFF09000B1E0229000AB
:101F6000B0E09D9000AFE09C229000B0E09F900018
:101F7000AFE09E2275F00EE52390000712080AE0FC
:101F8000FF7E007C007D1012081FA804A905AA0688
:101F9000AB072290000702080A93FFE4FCFDFE1243
:101FA00006AFE47B64FAF9F802073A9000011208E0
:051FB0000A75F0022299
:00000001FF
